{
  "contractName": "LeaSeaNFT",
  "abi": [
    {
      "inputs": [
        {
          "internalType": "address",
          "name": "contractAddress",
          "type": "address"
        }
      ],
      "stateMutability": "nonpayable",
      "type": "constructor"
    },
    {
      "anonymous": false,
      "inputs": [
        {
          "indexed": true,
          "internalType": "address",
          "name": "owner",
          "type": "address"
        },
        {
          "indexed": true,
          "internalType": "address",
          "name": "approved",
          "type": "address"
        },
        {
          "indexed": true,
          "internalType": "uint256",
          "name": "tokenId",
          "type": "uint256"
        }
      ],
      "name": "Approval",
      "type": "event"
    },
    {
      "anonymous": false,
      "inputs": [
        {
          "indexed": true,
          "internalType": "address",
          "name": "owner",
          "type": "address"
        },
        {
          "indexed": true,
          "internalType": "address",
          "name": "operator",
          "type": "address"
        },
        {
          "indexed": false,
          "internalType": "bool",
          "name": "approved",
          "type": "bool"
        }
      ],
      "name": "ApprovalForAll",
      "type": "event"
    },
    {
      "anonymous": false,
      "inputs": [
        {
          "indexed": true,
          "internalType": "address",
          "name": "previousOwner",
          "type": "address"
        },
        {
          "indexed": true,
          "internalType": "address",
          "name": "newOwner",
          "type": "address"
        }
      ],
      "name": "OwnershipTransferred",
      "type": "event"
    },
    {
      "anonymous": false,
      "inputs": [
        {
          "indexed": true,
          "internalType": "address",
          "name": "from",
          "type": "address"
        },
        {
          "indexed": true,
          "internalType": "address",
          "name": "to",
          "type": "address"
        },
        {
          "indexed": true,
          "internalType": "uint256",
          "name": "tokenId",
          "type": "uint256"
        }
      ],
      "name": "Transfer",
      "type": "event"
    },
    {
      "inputs": [
        {
          "internalType": "address",
          "name": "to",
          "type": "address"
        },
        {
          "internalType": "uint256",
          "name": "tokenId",
          "type": "uint256"
        }
      ],
      "name": "approve",
      "outputs": [],
      "stateMutability": "nonpayable",
      "type": "function"
    },
    {
      "inputs": [
        {
          "internalType": "address",
          "name": "owner",
          "type": "address"
        }
      ],
      "name": "balanceOf",
      "outputs": [
        {
          "internalType": "uint256",
          "name": "",
          "type": "uint256"
        }
      ],
      "stateMutability": "view",
      "type": "function",
      "constant": true
    },
    {
      "inputs": [
        {
          "internalType": "uint256",
          "name": "tokenId",
          "type": "uint256"
        }
      ],
      "name": "getApproved",
      "outputs": [
        {
          "internalType": "address",
          "name": "",
          "type": "address"
        }
      ],
      "stateMutability": "view",
      "type": "function",
      "constant": true
    },
    {
      "inputs": [
        {
          "internalType": "address",
          "name": "owner",
          "type": "address"
        },
        {
          "internalType": "address",
          "name": "operator",
          "type": "address"
        }
      ],
      "name": "isApprovedForAll",
      "outputs": [
        {
          "internalType": "bool",
          "name": "",
          "type": "bool"
        }
      ],
      "stateMutability": "view",
      "type": "function",
      "constant": true
    },
    {
      "inputs": [],
      "name": "name",
      "outputs": [
        {
          "internalType": "string",
          "name": "",
          "type": "string"
        }
      ],
      "stateMutability": "view",
      "type": "function",
      "constant": true
    },
    {
      "inputs": [],
      "name": "owner",
      "outputs": [
        {
          "internalType": "address",
          "name": "",
          "type": "address"
        }
      ],
      "stateMutability": "view",
      "type": "function",
      "constant": true
    },
    {
      "inputs": [
        {
          "internalType": "uint256",
          "name": "tokenId",
          "type": "uint256"
        }
      ],
      "name": "ownerOf",
      "outputs": [
        {
          "internalType": "address",
          "name": "",
          "type": "address"
        }
      ],
      "stateMutability": "view",
      "type": "function",
      "constant": true
    },
    {
      "inputs": [],
      "name": "renounceOwnership",
      "outputs": [],
      "stateMutability": "nonpayable",
      "type": "function"
    },
    {
      "inputs": [
        {
          "internalType": "address",
          "name": "from",
          "type": "address"
        },
        {
          "internalType": "address",
          "name": "to",
          "type": "address"
        },
        {
          "internalType": "uint256",
          "name": "tokenId",
          "type": "uint256"
        }
      ],
      "name": "safeTransferFrom",
      "outputs": [],
      "stateMutability": "nonpayable",
      "type": "function"
    },
    {
      "inputs": [
        {
          "internalType": "address",
          "name": "from",
          "type": "address"
        },
        {
          "internalType": "address",
          "name": "to",
          "type": "address"
        },
        {
          "internalType": "uint256",
          "name": "tokenId",
          "type": "uint256"
        },
        {
          "internalType": "bytes",
          "name": "data",
          "type": "bytes"
        }
      ],
      "name": "safeTransferFrom",
      "outputs": [],
      "stateMutability": "nonpayable",
      "type": "function"
    },
    {
      "inputs": [
        {
          "internalType": "address",
          "name": "operator",
          "type": "address"
        },
        {
          "internalType": "bool",
          "name": "approved",
          "type": "bool"
        }
      ],
      "name": "setApprovalForAll",
      "outputs": [],
      "stateMutability": "nonpayable",
      "type": "function"
    },
    {
      "inputs": [],
      "name": "symbol",
      "outputs": [
        {
          "internalType": "string",
          "name": "",
          "type": "string"
        }
      ],
      "stateMutability": "view",
      "type": "function",
      "constant": true
    },
    {
      "inputs": [
        {
          "internalType": "uint256",
          "name": "index",
          "type": "uint256"
        }
      ],
      "name": "tokenByIndex",
      "outputs": [
        {
          "internalType": "uint256",
          "name": "",
          "type": "uint256"
        }
      ],
      "stateMutability": "view",
      "type": "function",
      "constant": true
    },
    {
      "inputs": [
        {
          "internalType": "address",
          "name": "owner",
          "type": "address"
        },
        {
          "internalType": "uint256",
          "name": "index",
          "type": "uint256"
        }
      ],
      "name": "tokenOfOwnerByIndex",
      "outputs": [
        {
          "internalType": "uint256",
          "name": "",
          "type": "uint256"
        }
      ],
      "stateMutability": "view",
      "type": "function",
      "constant": true
    },
    {
      "inputs": [],
      "name": "totalSupply",
      "outputs": [
        {
          "internalType": "uint256",
          "name": "",
          "type": "uint256"
        }
      ],
      "stateMutability": "view",
      "type": "function",
      "constant": true
    },
    {
      "inputs": [
        {
          "internalType": "address",
          "name": "from",
          "type": "address"
        },
        {
          "internalType": "address",
          "name": "to",
          "type": "address"
        },
        {
          "internalType": "uint256",
          "name": "tokenId",
          "type": "uint256"
        }
      ],
      "name": "transferFrom",
      "outputs": [],
      "stateMutability": "nonpayable",
      "type": "function"
    },
    {
      "inputs": [
        {
          "internalType": "address",
          "name": "newOwner",
          "type": "address"
        }
      ],
      "name": "transferOwnership",
      "outputs": [],
      "stateMutability": "nonpayable",
      "type": "function"
    },
    {
      "inputs": [
        {
          "internalType": "bytes4",
          "name": "interfaceId",
          "type": "bytes4"
        }
      ],
      "name": "supportsInterface",
      "outputs": [
        {
          "internalType": "bool",
          "name": "",
          "type": "bool"
        }
      ],
      "stateMutability": "view",
      "type": "function",
      "constant": true
    },
    {
      "inputs": [
        {
          "internalType": "uint256",
          "name": "_tokenId",
          "type": "uint256"
        }
      ],
      "name": "tokenURI",
      "outputs": [
        {
          "internalType": "string",
          "name": "",
          "type": "string"
        }
      ],
      "stateMutability": "view",
      "type": "function",
      "constant": true
    },
    {
      "inputs": [
        {
          "internalType": "address",
          "name": "_recipient",
          "type": "address"
        },
        {
          "internalType": "string",
          "name": "_tokenURI",
          "type": "string"
        }
      ],
      "name": "mintNFT",
      "outputs": [
        {
          "internalType": "uint256",
          "name": "",
          "type": "uint256"
        }
      ],
      "stateMutability": "nonpayable",
      "type": "function"
    }
  ],
  "bytecode": "0x60806040523480156200001157600080fd5b5060405162003bde38038062003bde833981810160405281019062000037919062000269565b6040518060400160405280600981526020017f6c65615365614e465400000000000000000000000000000000000000000000008152506040518060400160405280600381526020017f4e465400000000000000000000000000000000000000000000000000000000008152508160009081620000b4919062000515565b508060019081620000c6919062000515565b505050620000e9620000dd6200013160201b60201c565b6200013960201b60201c565b80600d60006101000a81548173ffffffffffffffffffffffffffffffffffffffff021916908373ffffffffffffffffffffffffffffffffffffffff16021790555050620005fc565b600033905090565b6000600760009054906101000a900473ffffffffffffffffffffffffffffffffffffffff16905081600760006101000a81548173ffffffffffffffffffffffffffffffffffffffff021916908373ffffffffffffffffffffffffffffffffffffffff1602179055508173ffffffffffffffffffffffffffffffffffffffff168173ffffffffffffffffffffffffffffffffffffffff167f8be0079c531659141344cd1fd0a4f28419497f9722a3daafe3b4186f6b6457e060405160405180910390a35050565b600080fd5b600073ffffffffffffffffffffffffffffffffffffffff82169050919050565b6000620002318262000204565b9050919050565b620002438162000224565b81146200024f57600080fd5b50565b600081519050620002638162000238565b92915050565b600060208284031215620002825762000281620001ff565b5b6000620002928482850162000252565b91505092915050565b600081519050919050565b7f4e487b7100000000000000000000000000000000000000000000000000000000600052604160045260246000fd5b7f4e487b7100000000000000000000000000000000000000000000000000000000600052602260045260246000fd5b600060028204905060018216806200031d57607f821691505b602082108103620003335762000332620002d5565b5b50919050565b60008190508160005260206000209050919050565b60006020601f8301049050919050565b600082821b905092915050565b6000600883026200039d7fffffffffffffffffffffffffffffffffffffffffffffffffffffffffffffffff826200035e565b620003a986836200035e565b95508019841693508086168417925050509392505050565b6000819050919050565b6000819050919050565b6000620003f6620003f0620003ea84620003c1565b620003cb565b620003c1565b9050919050565b6000819050919050565b6200041283620003d5565b6200042a6200042182620003fd565b8484546200036b565b825550505050565b600090565b6200044162000432565b6200044e81848462000407565b505050565b5b8181101562000476576200046a60008262000437565b60018101905062000454565b5050565b601f821115620004c5576200048f8162000339565b6200049a846200034e565b81016020851015620004aa578190505b620004c2620004b9856200034e565b83018262000453565b50505b505050565b600082821c905092915050565b6000620004ea60001984600802620004ca565b1980831691505092915050565b6000620005058383620004d7565b9150826002028217905092915050565b62000520826200029b565b67ffffffffffffffff8111156200053c576200053b620002a6565b5b62000548825462000304565b620005558282856200047a565b600060209050601f8311600181146200058d576000841562000578578287015190505b620005848582620004f7565b865550620005f4565b601f1984166200059d8662000339565b60005b82811015620005c757848901518255600182019150602085019450602081019050620005a0565b86831015620005e75784890151620005e3601f891682620004d7565b8355505b6001600288020188555050505b505050505050565b6135d2806200060c6000396000f3fe608060405234801561001057600080fd5b506004361061012c5760003560e01c806370a08231116100ad578063b88d4fde11610071578063b88d4fde14610343578063c87b56dd1461035f578063e985e9c51461038f578063eacabe14146103bf578063f2fde38b146103ef5761012c565b806370a08231146102b1578063715018a6146102e15780638da5cb5b146102eb57806395d89b4114610309578063a22cb465146103275761012c565b806323b872dd116100f457806323b872dd146101e95780632f745c591461020557806342842e0e146102355780634f6ccce7146102515780636352211e146102815761012c565b806301ffc9a71461013157806306fdde0314610161578063081812fc1461017f578063095ea7b3146101af57806318160ddd146101cb575b600080fd5b61014b600480360381019061014691906120d5565b61040b565b604051610158919061211d565b60405180910390f35b61016961041d565b60405161017691906121d1565b60405180910390f35b61019960048036038101906101949190612229565b6104af565b6040516101a69190612297565b60405180910390f35b6101c960048036038101906101c491906122de565b6104f5565b005b6101d361060c565b6040516101e0919061232d565b60405180910390f35b61020360048036038101906101fe9190612348565b610619565b005b61021f600480360381019061021a91906122de565b610679565b60405161022c919061232d565b60405180910390f35b61024f600480360381019061024a9190612348565b61071e565b005b61026b60048036038101906102669190612229565b61073e565b604051610278919061232d565b60405180910390f35b61029b60048036038101906102969190612229565b6107af565b6040516102a89190612297565b60405180910390f35b6102cb60048036038101906102c6919061239b565b610860565b6040516102d8919061232d565b60405180910390f35b6102e9610917565b005b6102f361092b565b6040516103009190612297565b60405180910390f35b610311610955565b60405161031e91906121d1565b60405180910390f35b610341600480360381019061033c91906123f4565b6109e7565b005b61035d60048036038101906103589190612569565b6109fd565b005b61037960048036038101906103749190612229565b610a5f565b60405161038691906121d1565b60405180910390f35b6103a960048036038101906103a491906125ec565b610a71565b6040516103b6919061211d565b60405180910390f35b6103d960048036038101906103d491906126cd565b610b05565b6040516103e6919061232d565b60405180910390f35b6104096004803603810190610404919061239b565b610b6a565b005b600061041682610bed565b9050919050565b60606000805461042c90612758565b80601f016020809104026020016040519081016040528092919081815260200182805461045890612758565b80156104a55780601f1061047a576101008083540402835291602001916104a5565b820191906000526020600020905b81548152906001019060200180831161048857829003601f168201915b5050505050905090565b60006104ba82610c67565b6004600083815260200190815260200160002060009054906101000a900473ffffffffffffffffffffffffffffffffffffffff169050919050565b6000610500826107af565b90508073ffffffffffffffffffffffffffffffffffffffff168373ffffffffffffffffffffffffffffffffffffffff1603610570576040517f08c379a0000000000000000000000000000000000000000000000000000000008152600401610567906127fb565b60405180910390fd5b8073ffffffffffffffffffffffffffffffffffffffff1661058f610cb2565b73ffffffffffffffffffffffffffffffffffffffff1614806105be57506105bd816105b8610cb2565b610a71565b5b6105fd576040517f08c379a00000000000000000000000000000000000000000000000000000000081526004016105f49061288d565b60405180910390fd5b6106078383610cba565b505050565b6000600a80549050905090565b61062a610624610cb2565b82610d73565b610669576040517f08c379a00000000000000000000000000000000000000000000000000000000081526004016106609061291f565b60405180910390fd5b610674838383610e08565b505050565b600061068483610860565b82106106c5576040517f08c379a00000000000000000000000000000000000000000000000000000000081526004016106bc906129b1565b60405180910390fd5b600860008473ffffffffffffffffffffffffffffffffffffffff1673ffffffffffffffffffffffffffffffffffffffff168152602001908152602001600020600083815260200190815260200160002054905092915050565b610739838383604051806020016040528060008152506109fd565b505050565b600061074861060c565b8210610789576040517f08c379a000000000000000000000000000000000000000000000000000000000815260040161078090612a43565b60405180910390fd5b600a828154811061079d5761079c612a63565b5b90600052602060002001549050919050565b6000806002600084815260200190815260200160002060009054906101000a900473ffffffffffffffffffffffffffffffffffffffff169050600073ffffffffffffffffffffffffffffffffffffffff168173ffffffffffffffffffffffffffffffffffffffff1603610857576040517f08c379a000000000000000000000000000000000000000000000000000000000815260040161084e90612ade565b60405180910390fd5b80915050919050565b60008073ffffffffffffffffffffffffffffffffffffffff168273ffffffffffffffffffffffffffffffffffffffff16036108d0576040517f08c379a00000000000000000000000000000000000000000000000000000000081526004016108c790612b70565b60405180910390fd5b600360008373ffffffffffffffffffffffffffffffffffffffff1673ffffffffffffffffffffffffffffffffffffffff168152602001908152602001600020549050919050565b61091f61106e565b61092960006110ec565b565b6000600760009054906101000a900473ffffffffffffffffffffffffffffffffffffffff16905090565b60606001805461096490612758565b80601f016020809104026020016040519081016040528092919081815260200182805461099090612758565b80156109dd5780601f106109b2576101008083540402835291602001916109dd565b820191906000526020600020905b8154815290600101906020018083116109c057829003601f168201915b5050505050905090565b6109f96109f2610cb2565b83836111b2565b5050565b610a0e610a08610cb2565b83610d73565b610a4d576040517f08c379a0000000000000000000000000000000000000000000000000000000008152600401610a449061291f565b60405180910390fd5b610a598484848461131e565b50505050565b6060610a6a8261137a565b9050919050565b6000600560008473ffffffffffffffffffffffffffffffffffffffff1673ffffffffffffffffffffffffffffffffffffffff16815260200190815260200160002060008373ffffffffffffffffffffffffffffffffffffffff1673ffffffffffffffffffffffffffffffffffffffff16815260200190815260200160002060009054906101000a900460ff16905092915050565b6000610b11600c61148c565b6000610b1d600c6114a2565b9050610b2984826114b0565b610b338184611689565b610b60600d60009054906101000a900473ffffffffffffffffffffffffffffffffffffffff1660016109e7565b8091505092915050565b610b7261106e565b600073ffffffffffffffffffffffffffffffffffffffff168173ffffffffffffffffffffffffffffffffffffffff1603610be1576040517f08c379a0000000000000000000000000000000000000000000000000000000008152600401610bd890612c02565b60405180910390fd5b610bea816110ec565b50565b60007f780e9d63000000000000000000000000000000000000000000000000000000007bffffffffffffffffffffffffffffffffffffffffffffffffffffffff1916827bffffffffffffffffffffffffffffffffffffffffffffffffffffffff19161480610c605750610c5f826116f6565b5b9050919050565b610c70816117d8565b610caf576040517f08c379a0000000000000000000000000000000000000000000000000000000008152600401610ca690612ade565b60405180910390fd5b50565b600033905090565b816004600083815260200190815260200160002060006101000a81548173ffffffffffffffffffffffffffffffffffffffff021916908373ffffffffffffffffffffffffffffffffffffffff160217905550808273ffffffffffffffffffffffffffffffffffffffff16610d2d836107af565b73ffffffffffffffffffffffffffffffffffffffff167f8c5be1e5ebec7d5bd14f71427d1e84f3dd0314c0f7b2291e5b200ac8c7c3b92560405160405180910390a45050565b600080610d7f836107af565b90508073ffffffffffffffffffffffffffffffffffffffff168473ffffffffffffffffffffffffffffffffffffffff161480610dc15750610dc08185610a71565b5b80610dff57508373ffffffffffffffffffffffffffffffffffffffff16610de7846104af565b73ffffffffffffffffffffffffffffffffffffffff16145b91505092915050565b8273ffffffffffffffffffffffffffffffffffffffff16610e28826107af565b73ffffffffffffffffffffffffffffffffffffffff1614610e7e576040517f08c379a0000000000000000000000000000000000000000000000000000000008152600401610e7590612c94565b60405180910390fd5b600073ffffffffffffffffffffffffffffffffffffffff168273ffffffffffffffffffffffffffffffffffffffff1603610eed576040517f08c379a0000000000000000000000000000000000000000000000000000000008152600401610ee490612d26565b60405180910390fd5b610ef8838383611844565b610f03600082610cba565b6001600360008573ffffffffffffffffffffffffffffffffffffffff1673ffffffffffffffffffffffffffffffffffffffff1681526020019081526020016000206000828254610f539190612d75565b925050819055506001600360008473ffffffffffffffffffffffffffffffffffffffff1673ffffffffffffffffffffffffffffffffffffffff1681526020019081526020016000206000828254610faa9190612da9565b92505081905550816002600083815260200190815260200160002060006101000a81548173ffffffffffffffffffffffffffffffffffffffff021916908373ffffffffffffffffffffffffffffffffffffffff160217905550808273ffffffffffffffffffffffffffffffffffffffff168473ffffffffffffffffffffffffffffffffffffffff167fddf252ad1be2c89b69c2b068fc378daa952ba7f163c4a11628f55a4df523b3ef60405160405180910390a4611069838383611854565b505050565b611076610cb2565b73ffffffffffffffffffffffffffffffffffffffff1661109461092b565b73ffffffffffffffffffffffffffffffffffffffff16146110ea576040517f08c379a00000000000000000000000000000000000000000000000000000000081526004016110e190612e4b565b60405180910390fd5b565b6000600760009054906101000a900473ffffffffffffffffffffffffffffffffffffffff16905081600760006101000a81548173ffffffffffffffffffffffffffffffffffffffff021916908373ffffffffffffffffffffffffffffffffffffffff1602179055508173ffffffffffffffffffffffffffffffffffffffff168173ffffffffffffffffffffffffffffffffffffffff167f8be0079c531659141344cd1fd0a4f28419497f9722a3daafe3b4186f6b6457e060405160405180910390a35050565b8173ffffffffffffffffffffffffffffffffffffffff168373ffffffffffffffffffffffffffffffffffffffff1603611220576040517f08c379a000000000000000000000000000000000000000000000000000000000815260040161121790612eb7565b60405180910390fd5b80600560008573ffffffffffffffffffffffffffffffffffffffff1673ffffffffffffffffffffffffffffffffffffffff16815260200190815260200160002060008473ffffffffffffffffffffffffffffffffffffffff1673ffffffffffffffffffffffffffffffffffffffff16815260200190815260200160002060006101000a81548160ff0219169083151502179055508173ffffffffffffffffffffffffffffffffffffffff168373ffffffffffffffffffffffffffffffffffffffff167f17307eab39ab6107e8899845ad3d59bd9653f200f220920489ca2b5937696c3183604051611311919061211d565b60405180910390a3505050565b611329848484610e08565b61133584848484611859565b611374576040517f08c379a000000000000000000000000000000000000000000000000000000000815260040161136b90612f49565b60405180910390fd5b50505050565b606061138582610c67565b60006006600084815260200190815260200160002080546113a590612758565b80601f01602080910402602001604051908101604052809291908181526020018280546113d190612758565b801561141e5780601f106113f35761010080835404028352916020019161141e565b820191906000526020600020905b81548152906001019060200180831161140157829003601f168201915b50505050509050600061142f6119e0565b90506000815103611444578192505050611487565b600082511115611479578082604051602001611461929190612fa5565b60405160208183030381529060405292505050611487565b611482846119f7565b925050505b919050565b6001816000016000828254019250508190555050565b600081600001549050919050565b600073ffffffffffffffffffffffffffffffffffffffff168273ffffffffffffffffffffffffffffffffffffffff160361151f576040517f08c379a000000000000000000000000000000000000000000000000000000000815260040161151690613015565b60405180910390fd5b611528816117d8565b15611568576040517f08c379a000000000000000000000000000000000000000000000000000000000815260040161155f90613081565b60405180910390fd5b61157460008383611844565b6001600360008473ffffffffffffffffffffffffffffffffffffffff1673ffffffffffffffffffffffffffffffffffffffff16815260200190815260200160002060008282546115c49190612da9565b92505081905550816002600083815260200190815260200160002060006101000a81548173ffffffffffffffffffffffffffffffffffffffff021916908373ffffffffffffffffffffffffffffffffffffffff160217905550808273ffffffffffffffffffffffffffffffffffffffff16600073ffffffffffffffffffffffffffffffffffffffff167fddf252ad1be2c89b69c2b068fc378daa952ba7f163c4a11628f55a4df523b3ef60405160405180910390a461168560008383611854565b5050565b611692826117d8565b6116d1576040517f08c379a00000000000000000000000000000000000000000000000000000000081526004016116c890613113565b60405180910390fd5b806006600084815260200190815260200160002090816116f191906132df565b505050565b60007f80ac58cd000000000000000000000000000000000000000000000000000000007bffffffffffffffffffffffffffffffffffffffffffffffffffffffff1916827bffffffffffffffffffffffffffffffffffffffffffffffffffffffff191614806117c157507f5b5e139f000000000000000000000000000000000000000000000000000000007bffffffffffffffffffffffffffffffffffffffffffffffffffffffff1916827bffffffffffffffffffffffffffffffffffffffffffffffffffffffff1916145b806117d157506117d082611a5f565b5b9050919050565b60008073ffffffffffffffffffffffffffffffffffffffff166002600084815260200190815260200160002060009054906101000a900473ffffffffffffffffffffffffffffffffffffffff1673ffffffffffffffffffffffffffffffffffffffff1614159050919050565b61184f838383611ac9565b505050565b505050565b600061187a8473ffffffffffffffffffffffffffffffffffffffff16611bdb565b156119d3578373ffffffffffffffffffffffffffffffffffffffff1663150b7a026118a3610cb2565b8786866040518563ffffffff1660e01b81526004016118c59493929190613406565b6020604051808303816000875af192505050801561190157506040513d601f19601f820116820180604052508101906118fe9190613467565b60015b611983573d8060008114611931576040519150601f19603f3d011682016040523d82523d6000602084013e611936565b606091505b50600081510361197b576040517f08c379a000000000000000000000000000000000000000000000000000000000815260040161197290612f49565b60405180910390fd5b805181602001fd5b63150b7a0260e01b7bffffffffffffffffffffffffffffffffffffffffffffffffffffffff1916817bffffffffffffffffffffffffffffffffffffffffffffffffffffffff1916149150506119d8565b600190505b949350505050565b606060405180602001604052806000815250905090565b6060611a0282610c67565b6000611a0c6119e0565b90506000815111611a2c5760405180602001604052806000815250611a57565b80611a3684611bfe565b604051602001611a47929190612fa5565b6040516020818303038152906040525b915050919050565b60007f01ffc9a7000000000000000000000000000000000000000000000000000000007bffffffffffffffffffffffffffffffffffffffffffffffffffffffff1916827bffffffffffffffffffffffffffffffffffffffffffffffffffffffff1916149050919050565b611ad4838383611d5e565b600073ffffffffffffffffffffffffffffffffffffffff168373ffffffffffffffffffffffffffffffffffffffff1603611b1657611b1181611d63565b611b55565b8173ffffffffffffffffffffffffffffffffffffffff168373ffffffffffffffffffffffffffffffffffffffff1614611b5457611b538382611dac565b5b5b600073ffffffffffffffffffffffffffffffffffffffff168273ffffffffffffffffffffffffffffffffffffffff1603611b9757611b9281611f19565b611bd6565b8273ffffffffffffffffffffffffffffffffffffffff168273ffffffffffffffffffffffffffffffffffffffff1614611bd557611bd48282611fea565b5b5b505050565b6000808273ffffffffffffffffffffffffffffffffffffffff163b119050919050565b606060008203611c45576040518060400160405280600181526020017f30000000000000000000000000000000000000000000000000000000000000008152509050611d59565b600082905060005b60008214611c77578080611c6090613494565b915050600a82611c70919061350b565b9150611c4d565b60008167ffffffffffffffff811115611c9357611c9261243e565b5b6040519080825280601f01601f191660200182016040528015611cc55781602001600182028036833780820191505090505b5090505b60008514611d5257600182611cde9190612d75565b9150600a85611ced919061353c565b6030611cf99190612da9565b60f81b818381518110611d0f57611d0e612a63565b5b60200101907effffffffffffffffffffffffffffffffffffffffffffffffffffffffffffff1916908160001a905350600a85611d4b919061350b565b9450611cc9565b8093505050505b919050565b505050565b600a80549050600b600083815260200190815260200160002081905550600a81908060018154018082558091505060019003906000526020600020016000909190919091505550565b60006001611db984610860565b611dc39190612d75565b9050600060096000848152602001908152602001600020549050818114611ea8576000600860008673ffffffffffffffffffffffffffffffffffffffff1673ffffffffffffffffffffffffffffffffffffffff168152602001908152602001600020600084815260200190815260200160002054905080600860008773ffffffffffffffffffffffffffffffffffffffff1673ffffffffffffffffffffffffffffffffffffffff168152602001908152602001600020600084815260200190815260200160002081905550816009600083815260200190815260200160002081905550505b6009600084815260200190815260200160002060009055600860008573ffffffffffffffffffffffffffffffffffffffff1673ffffffffffffffffffffffffffffffffffffffff16815260200190815260200160002060008381526020019081526020016000206000905550505050565b60006001600a80549050611f2d9190612d75565b90506000600b60008481526020019081526020016000205490506000600a8381548110611f5d57611f5c612a63565b5b9060005260206000200154905080600a8381548110611f7f57611f7e612a63565b5b906000526020600020018190555081600b600083815260200190815260200160002081905550600b600085815260200190815260200160002060009055600a805480611fce57611fcd61356d565b5b6001900381819060005260206000200160009055905550505050565b6000611ff583610860565b905081600860008573ffffffffffffffffffffffffffffffffffffffff1673ffffffffffffffffffffffffffffffffffffffff168152602001908152602001600020600083815260200190815260200160002081905550806009600084815260200190815260200160002081905550505050565b6000604051905090565b600080fd5b600080fd5b60007fffffffff0000000000000000000000000000000000000000000000000000000082169050919050565b6120b28161207d565b81146120bd57600080fd5b50565b6000813590506120cf816120a9565b92915050565b6000602082840312156120eb576120ea612073565b5b60006120f9848285016120c0565b91505092915050565b60008115159050919050565b61211781612102565b82525050565b6000602082019050612132600083018461210e565b92915050565b600081519050919050565b600082825260208201905092915050565b60005b83811015612172578082015181840152602081019050612157565b83811115612181576000848401525b50505050565b6000601f19601f8301169050919050565b60006121a382612138565b6121ad8185612143565b93506121bd818560208601612154565b6121c681612187565b840191505092915050565b600060208201905081810360008301526121eb8184612198565b905092915050565b6000819050919050565b612206816121f3565b811461221157600080fd5b50565b600081359050612223816121fd565b92915050565b60006020828403121561223f5761223e612073565b5b600061224d84828501612214565b91505092915050565b600073ffffffffffffffffffffffffffffffffffffffff82169050919050565b600061228182612256565b9050919050565b61229181612276565b82525050565b60006020820190506122ac6000830184612288565b92915050565b6122bb81612276565b81146122c657600080fd5b50565b6000813590506122d8816122b2565b92915050565b600080604083850312156122f5576122f4612073565b5b6000612303858286016122c9565b925050602061231485828601612214565b9150509250929050565b612327816121f3565b82525050565b6000602082019050612342600083018461231e565b92915050565b60008060006060848603121561236157612360612073565b5b600061236f868287016122c9565b9350506020612380868287016122c9565b925050604061239186828701612214565b9150509250925092565b6000602082840312156123b1576123b0612073565b5b60006123bf848285016122c9565b91505092915050565b6123d181612102565b81146123dc57600080fd5b50565b6000813590506123ee816123c8565b92915050565b6000806040838503121561240b5761240a612073565b5b6000612419858286016122c9565b925050602061242a858286016123df565b9150509250929050565b600080fd5b600080fd5b7f4e487b7100000000000000000000000000000000000000000000000000000000600052604160045260246000fd5b61247682612187565b810181811067ffffffffffffffff821117156124955761249461243e565b5b80604052505050565b60006124a8612069565b90506124b4828261246d565b919050565b600067ffffffffffffffff8211156124d4576124d361243e565b5b6124dd82612187565b9050602081019050919050565b82818337600083830152505050565b600061250c612507846124b9565b61249e565b90508281526020810184848401111561252857612527612439565b5b6125338482856124ea565b509392505050565b600082601f8301126125505761254f612434565b5b81356125608482602086016124f9565b91505092915050565b6000806000806080858703121561258357612582612073565b5b6000612591878288016122c9565b94505060206125a2878288016122c9565b93505060406125b387828801612214565b925050606085013567ffffffffffffffff8111156125d4576125d3612078565b5b6125e08782880161253b565b91505092959194509250565b6000806040838503121561260357612602612073565b5b6000612611858286016122c9565b9250506020612622858286016122c9565b9150509250929050565b600067ffffffffffffffff8211156126475761264661243e565b5b61265082612187565b9050602081019050919050565b600061267061266b8461262c565b61249e565b90508281526020810184848401111561268c5761268b612439565b5b6126978482856124ea565b509392505050565b600082601f8301126126b4576126b3612434565b5b81356126c484826020860161265d565b91505092915050565b600080604083850312156126e4576126e3612073565b5b60006126f2858286016122c9565b925050602083013567ffffffffffffffff81111561271357612712612078565b5b61271f8582860161269f565b9150509250929050565b7f4e487b7100000000000000000000000000000000000000000000000000000000600052602260045260246000fd5b6000600282049050600182168061277057607f821691505b60208210810361278357612782612729565b5b50919050565b7f4552433732313a20617070726f76616c20746f2063757272656e74206f776e6560008201527f7200000000000000000000000000000000000000000000000000000000000000602082015250565b60006127e5602183612143565b91506127f082612789565b604082019050919050565b60006020820190508181036000830152612814816127d8565b9050919050565b7f4552433732313a20617070726f76652063616c6c6572206973206e6f7420746f60008201527f6b656e206f776e6572206e6f7220617070726f76656420666f7220616c6c0000602082015250565b6000612877603e83612143565b91506128828261281b565b604082019050919050565b600060208201905081810360008301526128a68161286a565b9050919050565b7f4552433732313a2063616c6c6572206973206e6f7420746f6b656e206f776e6560008201527f72206e6f7220617070726f766564000000000000000000000000000000000000602082015250565b6000612909602e83612143565b9150612914826128ad565b604082019050919050565b60006020820190508181036000830152612938816128fc565b9050919050565b7f455243373231456e756d657261626c653a206f776e657220696e646578206f7560008201527f74206f6620626f756e6473000000000000000000000000000000000000000000602082015250565b600061299b602b83612143565b91506129a68261293f565b604082019050919050565b600060208201905081810360008301526129ca8161298e565b9050919050565b7f455243373231456e756d657261626c653a20676c6f62616c20696e646578206f60008201527f7574206f6620626f756e64730000000000000000000000000000000000000000602082015250565b6000612a2d602c83612143565b9150612a38826129d1565b604082019050919050565b60006020820190508181036000830152612a5c81612a20565b9050919050565b7f4e487b7100000000000000000000000000000000000000000000000000000000600052603260045260246000fd5b7f4552433732313a20696e76616c696420746f6b656e2049440000000000000000600082015250565b6000612ac8601883612143565b9150612ad382612a92565b602082019050919050565b60006020820190508181036000830152612af781612abb565b9050919050565b7f4552433732313a2061646472657373207a65726f206973206e6f74206120766160008201527f6c6964206f776e65720000000000000000000000000000000000000000000000602082015250565b6000612b5a602983612143565b9150612b6582612afe565b604082019050919050565b60006020820190508181036000830152612b8981612b4d565b9050919050565b7f4f776e61626c653a206e6577206f776e657220697320746865207a65726f206160008201527f6464726573730000000000000000000000000000000000000000000000000000602082015250565b6000612bec602683612143565b9150612bf782612b90565b604082019050919050565b60006020820190508181036000830152612c1b81612bdf565b9050919050565b7f4552433732313a207472616e736665722066726f6d20696e636f72726563742060008201527f6f776e6572000000000000000000000000000000000000000000000000000000602082015250565b6000612c7e602583612143565b9150612c8982612c22565b604082019050919050565b60006020820190508181036000830152612cad81612c71565b9050919050565b7f4552433732313a207472616e7366657220746f20746865207a65726f2061646460008201527f7265737300000000000000000000000000000000000000000000000000000000602082015250565b6000612d10602483612143565b9150612d1b82612cb4565b604082019050919050565b60006020820190508181036000830152612d3f81612d03565b9050919050565b7f4e487b7100000000000000000000000000000000000000000000000000000000600052601160045260246000fd5b6000612d80826121f3565b9150612d8b836121f3565b925082821015612d9e57612d9d612d46565b5b828203905092915050565b6000612db4826121f3565b9150612dbf836121f3565b9250827fffffffffffffffffffffffffffffffffffffffffffffffffffffffffffffffff03821115612df457612df3612d46565b5b828201905092915050565b7f4f776e61626c653a2063616c6c6572206973206e6f7420746865206f776e6572600082015250565b6000612e35602083612143565b9150612e4082612dff565b602082019050919050565b60006020820190508181036000830152612e6481612e28565b9050919050565b7f4552433732313a20617070726f766520746f2063616c6c657200000000000000600082015250565b6000612ea1601983612143565b9150612eac82612e6b565b602082019050919050565b60006020820190508181036000830152612ed081612e94565b9050919050565b7f4552433732313a207472616e7366657220746f206e6f6e20455243373231526560008201527f63656976657220696d706c656d656e7465720000000000000000000000000000602082015250565b6000612f33603283612143565b9150612f3e82612ed7565b604082019050919050565b60006020820190508181036000830152612f6281612f26565b9050919050565b600081905092915050565b6000612f7f82612138565b612f898185612f69565b9350612f99818560208601612154565b80840191505092915050565b6000612fb18285612f74565b9150612fbd8284612f74565b91508190509392505050565b7f4552433732313a206d696e7420746f20746865207a65726f2061646472657373600082015250565b6000612fff602083612143565b915061300a82612fc9565b602082019050919050565b6000602082019050818103600083015261302e81612ff2565b9050919050565b7f4552433732313a20746f6b656e20616c7265616479206d696e74656400000000600082015250565b600061306b601c83612143565b915061307682613035565b602082019050919050565b6000602082019050818103600083015261309a8161305e565b9050919050565b7f45524337323155524953746f726167653a2055524920736574206f66206e6f6e60008201527f6578697374656e7420746f6b656e000000000000000000000000000000000000602082015250565b60006130fd602e83612143565b9150613108826130a1565b604082019050919050565b6000602082019050818103600083015261312c816130f0565b9050919050565b60008190508160005260206000209050919050565b60006020601f8301049050919050565b600082821b905092915050565b6000600883026131957fffffffffffffffffffffffffffffffffffffffffffffffffffffffffffffffff82613158565b61319f8683613158565b95508019841693508086168417925050509392505050565b6000819050919050565b60006131dc6131d76131d2846121f3565b6131b7565b6121f3565b9050919050565b6000819050919050565b6131f6836131c1565b61320a613202826131e3565b848454613165565b825550505050565b600090565b61321f613212565b61322a8184846131ed565b505050565b5b8181101561324e57613243600082613217565b600181019050613230565b5050565b601f8211156132935761326481613133565b61326d84613148565b8101602085101561327c578190505b61329061328885613148565b83018261322f565b50505b505050565b600082821c905092915050565b60006132b660001984600802613298565b1980831691505092915050565b60006132cf83836132a5565b9150826002028217905092915050565b6132e882612138565b67ffffffffffffffff8111156133015761330061243e565b5b61330b8254612758565b613316828285613252565b600060209050601f8311600181146133495760008415613337578287015190505b61334185826132c3565b8655506133a9565b601f19841661335786613133565b60005b8281101561337f5784890151825560018201915060208501945060208101905061335a565b8683101561339c5784890151613398601f8916826132a5565b8355505b6001600288020188555050505b505050505050565b600081519050919050565b600082825260208201905092915050565b60006133d8826133b1565b6133e281856133bc565b93506133f2818560208601612154565b6133fb81612187565b840191505092915050565b600060808201905061341b6000830187612288565b6134286020830186612288565b613435604083018561231e565b818103606083015261344781846133cd565b905095945050505050565b600081519050613461816120a9565b92915050565b60006020828403121561347d5761347c612073565b5b600061348b84828501613452565b91505092915050565b600061349f826121f3565b91507fffffffffffffffffffffffffffffffffffffffffffffffffffffffffffffffff82036134d1576134d0612d46565b5b600182019050919050565b7f4e487b7100000000000000000000000000000000000000000000000000000000600052601260045260246000fd5b6000613516826121f3565b9150613521836121f3565b925082613531576135306134dc565b5b828204905092915050565b6000613547826121f3565b9150613552836121f3565b925082613562576135616134dc565b5b828206905092915050565b7f4e487b7100000000000000000000000000000000000000000000000000000000600052603160045260246000fdfea264697066735822122070cf074ebb836d76842528399b22d718690c2f726c43660b719404ac7adab28964736f6c634300080f0033",
  "immutableReferences": {},
  "source": "// SPDX-License-Identifier: MIT\npragma solidity ^0.8.7;\n\nimport \"@openzeppelin/contracts/token/ERC721/ERC721.sol\";\nimport \"@openzeppelin/contracts/utils/Counters.sol\";\nimport \"@openzeppelin/contracts/access/Ownable.sol\";\nimport \"@openzeppelin/contracts/token/ERC721/extensions/ERC721URIStorage.sol\";\nimport \"@openzeppelin/contracts/token/ERC721/extensions/ERC721Enumerable.sol\";\n\ncontract LeaSeaNFT is ERC721URIStorage, Ownable, ERC721Enumerable {\n    using Counters for Counters.Counter;\n    Counters.Counter private _tokenIds;\n\n    address marketContractAddress;\n\n    constructor(address contractAddress) ERC721(\"leaSeaNFT\", \"NFT\"){\n        marketContractAddress = contractAddress;\n    }\n\n    function _beforeTokenTransfer(\n        address from,\n        address to,\n        uint256 tokenId\n    ) internal\n      override(ERC721, ERC721Enumerable) {\n        super._beforeTokenTransfer(from, to, tokenId);\n    }\n\n    function _burn(\n        uint256 tokenId\n    ) internal\n      override(ERC721, ERC721URIStorage) {\n        super._burn(tokenId);\n    }\n\n    function supportsInterface(bytes4 interfaceId)\n        public\n        view\n        override(ERC721, ERC721Enumerable)\n        returns (bool)\n    {\n        return super.supportsInterface(interfaceId);\n    }\n\n    function tokenURI(\n        uint256 _tokenId\n    ) public view\n      override(ERC721, ERC721URIStorage) returns (string memory) {\n        return super.tokenURI(_tokenId);\n    }\n    \n    function mintNFT(address _recipient, string memory _tokenURI) public returns (uint256) {\n        _tokenIds.increment();\n\n        uint256 newItemId = _tokenIds.current();\n        _mint(_recipient, newItemId);\n        _setTokenURI(newItemId, _tokenURI);\n        setApprovalForAll(marketContractAddress, true); //grant transaction permission to market\n\n        return newItemId;\n    }\n}",
  "sourcePath": "/Users/rokrokss/workspace/hyein/BEB-05-LeeSea/contract/contracts/LeeSeaNFT.sol",
  "compiler": {
    "name": "solc",
    "version": "0.8.15+commit.e14f2714.Emscripten.clang"
  },
  "schemaVersion": "3.4.8",
  "updatedAt": "2022-08-16T02:08:07.452Z",
  "networkType": "ethereum",
  "devdoc": {
    "kind": "dev",
    "methods": {
      "approve(address,uint256)": {
        "details": "See {IERC721-approve}."
      },
      "balanceOf(address)": {
        "details": "See {IERC721-balanceOf}."
      },
      "getApproved(uint256)": {
        "details": "See {IERC721-getApproved}."
      },
      "isApprovedForAll(address,address)": {
        "details": "See {IERC721-isApprovedForAll}."
      },
      "name()": {
        "details": "See {IERC721Metadata-name}."
      },
      "owner()": {
        "details": "Returns the address of the current owner."
      },
      "ownerOf(uint256)": {
        "details": "See {IERC721-ownerOf}."
      },
      "renounceOwnership()": {
        "details": "Leaves the contract without owner. It will not be possible to call `onlyOwner` functions anymore. Can only be called by the current owner. NOTE: Renouncing ownership will leave the contract without an owner, thereby removing any functionality that is only available to the owner."
      },
      "safeTransferFrom(address,address,uint256)": {
        "details": "See {IERC721-safeTransferFrom}."
      },
      "safeTransferFrom(address,address,uint256,bytes)": {
        "details": "See {IERC721-safeTransferFrom}."
      },
      "setApprovalForAll(address,bool)": {
        "details": "See {IERC721-setApprovalForAll}."
      },
      "symbol()": {
        "details": "See {IERC721Metadata-symbol}."
      },
      "tokenByIndex(uint256)": {
        "details": "See {IERC721Enumerable-tokenByIndex}."
      },
      "tokenOfOwnerByIndex(address,uint256)": {
        "details": "See {IERC721Enumerable-tokenOfOwnerByIndex}."
      },
      "totalSupply()": {
        "details": "See {IERC721Enumerable-totalSupply}."
      },
      "transferFrom(address,address,uint256)": {
        "details": "See {IERC721-transferFrom}."
      },
      "transferOwnership(address)": {
        "details": "Transfers ownership of the contract to a new account (`newOwner`). Can only be called by the current owner."
      }
    },
    "version": 1
  },
  "userdoc": {
    "kind": "user",
    "methods": {},
    "version": 1
  }
}