{
  "contractName": "LeaSeaMarket",
  "abi": [
    {
      "inputs": [],
      "stateMutability": "nonpayable",
      "type": "constructor"
    },
    {
      "anonymous": false,
      "inputs": [
        {
          "indexed": false,
          "internalType": "uint256",
          "name": "tokenId",
          "type": "uint256"
        },
        {
          "indexed": false,
          "internalType": "uint256",
          "name": "itemId",
          "type": "uint256"
        },
        {
          "indexed": false,
          "internalType": "address",
          "name": "seller",
          "type": "address"
        },
        {
          "indexed": false,
          "internalType": "uint256",
          "name": "price",
          "type": "uint256"
        }
      ],
      "name": "ItemCreated",
      "type": "event"
    },
    {
      "anonymous": false,
      "inputs": [
        {
          "indexed": false,
          "internalType": "uint256",
          "name": "tokenId",
          "type": "uint256"
        },
        {
          "indexed": false,
          "internalType": "uint256",
          "name": "itemId",
          "type": "uint256"
        },
        {
          "indexed": false,
          "internalType": "address",
          "name": "seller",
          "type": "address"
        },
        {
          "indexed": false,
          "internalType": "address",
          "name": "buyer",
          "type": "address"
        },
        {
          "indexed": false,
          "internalType": "uint256",
          "name": "price",
          "type": "uint256"
        }
      ],
      "name": "ItemSold",
      "type": "event"
    },
    {
      "anonymous": false,
      "inputs": [
        {
          "indexed": false,
          "internalType": "uint256",
          "name": "tokenId",
          "type": "uint256"
        },
        {
          "indexed": false,
          "internalType": "uint256",
          "name": "itemId",
          "type": "uint256"
        },
        {
          "indexed": false,
          "internalType": "address",
          "name": "seller",
          "type": "address"
        }
      ],
      "name": "SaleCanceled",
      "type": "event"
    },
    {
      "inputs": [
        {
          "internalType": "address",
          "name": "_contractAddr",
          "type": "address"
        },
        {
          "internalType": "uint256",
          "name": "_tokenId",
          "type": "uint256"
        },
        {
          "internalType": "uint256",
          "name": "_price",
          "type": "uint256"
        }
      ],
      "name": "sell",
      "outputs": [],
      "stateMutability": "payable",
      "type": "function"
    },
    {
      "inputs": [
        {
          "internalType": "address",
          "name": "_contractAddr",
          "type": "address"
        },
        {
          "internalType": "uint256",
          "name": "_itemId",
          "type": "uint256"
        }
      ],
      "name": "cancel",
      "outputs": [],
      "stateMutability": "nonpayable",
      "type": "function"
    },
    {
      "inputs": [
        {
          "internalType": "address",
          "name": "_contractAddr",
          "type": "address"
        },
        {
          "internalType": "uint256",
          "name": "_itemId",
          "type": "uint256"
        }
      ],
      "name": "buy",
      "outputs": [],
      "stateMutability": "payable",
      "type": "function"
    },
    {
      "inputs": [],
      "name": "fetchItemsOnSale",
      "outputs": [
        {
          "components": [
            {
              "internalType": "uint256",
              "name": "itemId",
              "type": "uint256"
            },
            {
              "components": [
                {
                  "internalType": "address",
                  "name": "contractAddr",
                  "type": "address"
                },
                {
                  "internalType": "uint256",
                  "name": "tokenId",
                  "type": "uint256"
                }
              ],
              "internalType": "struct LeaSeaMarket.NFTToken",
              "name": "token",
              "type": "tuple"
            },
            {
              "internalType": "address payable",
              "name": "seller",
              "type": "address"
            },
            {
              "internalType": "uint256",
              "name": "price",
              "type": "uint256"
            },
            {
              "internalType": "enum LeaSeaMarket.ItemStatus",
              "name": "itemStatus",
              "type": "uint8"
            }
          ],
          "internalType": "struct LeaSeaMarket.MarketItem[]",
          "name": "",
          "type": "tuple[]"
        }
      ],
      "stateMutability": "view",
      "type": "function"
    },
    {
      "inputs": [],
      "name": "fetchMyItemsOnSale",
      "outputs": [
        {
          "components": [
            {
              "internalType": "uint256",
              "name": "itemId",
              "type": "uint256"
            },
            {
              "components": [
                {
                  "internalType": "address",
                  "name": "contractAddr",
                  "type": "address"
                },
                {
                  "internalType": "uint256",
                  "name": "tokenId",
                  "type": "uint256"
                }
              ],
              "internalType": "struct LeaSeaMarket.NFTToken",
              "name": "token",
              "type": "tuple"
            },
            {
              "internalType": "address payable",
              "name": "seller",
              "type": "address"
            },
            {
              "internalType": "uint256",
              "name": "price",
              "type": "uint256"
            },
            {
              "internalType": "enum LeaSeaMarket.ItemStatus",
              "name": "itemStatus",
              "type": "uint8"
            }
          ],
          "internalType": "struct LeaSeaMarket.MarketItem[]",
          "name": "",
          "type": "tuple[]"
        }
      ],
      "stateMutability": "view",
      "type": "function"
    }
  ],
  "bytecode": "0x608060405266470de4df82000060025534801561001b57600080fd5b506118888061002b6000396000f3fe60806040526004361061004a5760003560e01c80636a2724621461004f57806398590ef91461006b578063a64fc3fa14610094578063ae9eb1ed146100bf578063cce7ec13146100ea575b600080fd5b61006960048036038101906100649190611055565b610106565b005b34801561007757600080fd5b50610092600480360381019061008d91906110a8565b6104b5565b005b3480156100a057600080fd5b506100a9610689565b6040516100b691906112e4565b60405180910390f35b3480156100cb57600080fd5b506100d4610916565b6040516100e191906112e4565b60405180910390f35b61010460048036038101906100ff91906110a8565b610ce0565b005b8273ffffffffffffffffffffffffffffffffffffffff16636352211e836040518263ffffffff1660e01b815260040161013f9190611315565b602060405180830381865afa15801561015c573d6000803e3d6000fd5b505050506040513d601f19601f820116820180604052508101906101809190611345565b73ffffffffffffffffffffffffffffffffffffffff163373ffffffffffffffffffffffffffffffffffffffff16146101ed576040517f08c379a00000000000000000000000000000000000000000000000000000000081526004016101e4906113cf565b60405180910390fd5b6002543414610231576040517f08c379a000000000000000000000000000000000000000000000000000000000815260040161022890611461565b60405180910390fd5b60008111610274576040517f08c379a000000000000000000000000000000000000000000000000000000000815260040161026b906114cd565b60405180910390fd5b61027e6000610f0b565b600061028a6000610f21565b90506040518060a0016040528082815260200160405180604001604052808773ffffffffffffffffffffffffffffffffffffffff1681526020018681525081526020013373ffffffffffffffffffffffffffffffffffffffff1681526020018381526020016000600281111561030357610302611182565b5b815250600360008381526020019081526020016000206000820151816000015560208201518160010160008201518160000160006101000a81548173ffffffffffffffffffffffffffffffffffffffff021916908373ffffffffffffffffffffffffffffffffffffffff16021790555060208201518160010155505060408201518160030160006101000a81548173ffffffffffffffffffffffffffffffffffffffff021916908373ffffffffffffffffffffffffffffffffffffffff1602179055506060820151816004015560808201518160050160006101000a81548160ff021916908360028111156103fb576103fa611182565b5b02179055509050508373ffffffffffffffffffffffffffffffffffffffff166323b872dd3330866040518463ffffffff1660e01b8152600401610440939291906114fc565b600060405180830381600087803b15801561045a57600080fd5b505af115801561046e573d6000803e3d6000fd5b505050507f8b583604758a4c6c995171787709d2caa670e019b68bfb687d2c9fa77e538059838233856040516104a79493929190611533565b60405180910390a150505050565b6000600360008381526020019081526020016000206001016001015490506003600083815260200190815260200160002060030160009054906101000a900473ffffffffffffffffffffffffffffffffffffffff1673ffffffffffffffffffffffffffffffffffffffff163373ffffffffffffffffffffffffffffffffffffffff1614801561058b57506000600281111561055357610552611182565b5b6003600084815260200190815260200160002060050160009054906101000a900460ff16600281111561058957610588611182565b5b145b15610649578273ffffffffffffffffffffffffffffffffffffffff166323b872dd3033846040518463ffffffff1660e01b81526004016105cd939291906114fc565b600060405180830381600087803b1580156105e757600080fd5b505af11580156105fb573d6000803e3d6000fd5b5050505060026003600084815260200190815260200160002060050160006101000a81548160ff0219169083600281111561063957610638611182565b5b02179055506106486001610f0b565b5b7fd3bffea3a9501b0422f789f4c0797d9cdcb9e89dd65de11b04e9b0079ea4e2a781833360405161067c93929190611578565b60405180910390a1505050565b606060006106976000610f21565b905060006106a56001610f21565b6106af6000610f21565b6106b991906115de565b90506000808267ffffffffffffffff8111156106d8576106d7611612565b5b60405190808252806020026020018201604052801561071157816020015b6106fe610f2f565b8152602001906001900390816106f65790505b5090506000600190505b84811161090b576000600281111561073657610735611182565b5b6003600083815260200190815260200160002060050160009054906101000a900460ff16600281111561076c5761076b611182565b5b036108f8576000600360008381526020019081526020016000206000015490506000600360008381526020019081526020016000209050806040518060a001604052908160008201548152602001600182016040518060400160405290816000820160009054906101000a900473ffffffffffffffffffffffffffffffffffffffff1673ffffffffffffffffffffffffffffffffffffffff1673ffffffffffffffffffffffffffffffffffffffff16815260200160018201548152505081526020016003820160009054906101000a900473ffffffffffffffffffffffffffffffffffffffff1673ffffffffffffffffffffffffffffffffffffffff1673ffffffffffffffffffffffffffffffffffffffff168152602001600482015481526020016005820160009054906101000a900460ff1660028111156108b2576108b1611182565b5b60028111156108c4576108c3611182565b5b815250508486815181106108db576108da611641565b5b60200260200101819052506001856108f39190611670565b945050505b8080610903906116c6565b91505061071b565b508094505050505090565b606060006109246000610f21565b90506000806000600190505b838111610a17576000600281111561094b5761094a611182565b5b6003600083815260200190815260200160002060050160009054906101000a900460ff16600281111561098157610980611182565b5b1480156109ef57503373ffffffffffffffffffffffffffffffffffffffff166003600083815260200190815260200160002060030160009054906101000a900473ffffffffffffffffffffffffffffffffffffffff1673ffffffffffffffffffffffffffffffffffffffff16145b15610a0457600183610a019190611670565b92505b8080610a0f906116c6565b915050610930565b5060008267ffffffffffffffff811115610a3457610a33611612565b5b604051908082528060200260200182016040528015610a6d57816020015b610a5a610f2f565b815260200190600190039081610a525790505b5090506000600190505b848111610cd55760006002811115610a9257610a91611182565b5b6003600083815260200190815260200160002060050160009054906101000a900460ff166002811115610ac857610ac7611182565b5b148015610b3657503373ffffffffffffffffffffffffffffffffffffffff166003600083815260200190815260200160002060030160009054906101000a900473ffffffffffffffffffffffffffffffffffffffff1673ffffffffffffffffffffffffffffffffffffffff16145b15610cc2576000600360008381526020019081526020016000206000015490506000600360008381526020019081526020016000209050806040518060a001604052908160008201548152602001600182016040518060400160405290816000820160009054906101000a900473ffffffffffffffffffffffffffffffffffffffff1673ffffffffffffffffffffffffffffffffffffffff1673ffffffffffffffffffffffffffffffffffffffff16815260200160018201548152505081526020016003820160009054906101000a900473ffffffffffffffffffffffffffffffffffffffff1673ffffffffffffffffffffffffffffffffffffffff1673ffffffffffffffffffffffffffffffffffffffff168152602001600482015481526020016005820160009054906101000a900460ff166002811115610c7c57610c7b611182565b5b6002811115610c8e57610c8d611182565b5b81525050848681518110610ca557610ca4611641565b5b6020026020010181905250600185610cbd9190611670565b945050505b8080610ccd906116c6565b915050610a77565b508094505050505090565b600060036000838152602001908152602001600020600401549050600060036000848152602001908152602001600020600101600101549050813414610d5b576040517f08c379a0000000000000000000000000000000000000000000000000000000008152600401610d5290611780565b60405180910390fd5b6003600084815260200190815260200160002060030160009054906101000a900473ffffffffffffffffffffffffffffffffffffffff1673ffffffffffffffffffffffffffffffffffffffff166108fc349081150290604051600060405180830381858888f19350505050158015610dd7573d6000803e3d6000fd5b508373ffffffffffffffffffffffffffffffffffffffff166323b872dd3033846040518463ffffffff1660e01b8152600401610e15939291906114fc565b600060405180830381600087803b158015610e2f57600080fd5b505af1158015610e43573d6000803e3d6000fd5b5050505060016003600085815260200190815260200160002060050160006101000a81548160ff02191690836002811115610e8157610e80611182565b5b0217905550610e906001610f0b565b7f636c891e1c595c5879015e9f0767c0138ec002c115fa5425d3a585252e13a1ed81846003600087815260200190815260200160002060030160009054906101000a900473ffffffffffffffffffffffffffffffffffffffff163386604051610efd9594939291906117ff565b60405180910390a150505050565b6001816000016000828254019250508190555050565b600081600001549050919050565b6040518060a0016040528060008152602001610f49610f8c565b8152602001600073ffffffffffffffffffffffffffffffffffffffff1681526020016000815260200160006002811115610f8657610f85611182565b5b81525090565b6040518060400160405280600073ffffffffffffffffffffffffffffffffffffffff168152602001600081525090565b600080fd5b600073ffffffffffffffffffffffffffffffffffffffff82169050919050565b6000610fec82610fc1565b9050919050565b610ffc81610fe1565b811461100757600080fd5b50565b60008135905061101981610ff3565b92915050565b6000819050919050565b6110328161101f565b811461103d57600080fd5b50565b60008135905061104f81611029565b92915050565b60008060006060848603121561106e5761106d610fbc565b5b600061107c8682870161100a565b935050602061108d86828701611040565b925050604061109e86828701611040565b9150509250925092565b600080604083850312156110bf576110be610fbc565b5b60006110cd8582860161100a565b92505060206110de85828601611040565b9150509250929050565b600081519050919050565b600082825260208201905092915050565b6000819050602082019050919050565b61111d8161101f565b82525050565b61112c81610fe1565b82525050565b6040820160008201516111486000850182611123565b50602082015161115b6020850182611114565b50505050565b600061116c82610fc1565b9050919050565b61117c81611161565b82525050565b7f4e487b7100000000000000000000000000000000000000000000000000000000600052602160045260246000fd5b600381106111c2576111c1611182565b5b50565b60008190506111d3826111b1565b919050565b60006111e3826111c5565b9050919050565b6111f3816111d8565b82525050565b60c08201600082015161120f6000850182611114565b5060208201516112226020850182611132565b5060408201516112356060850182611173565b5060608201516112486080850182611114565b50608082015161125b60a08501826111ea565b50505050565b600061126d83836111f9565b60c08301905092915050565b6000602082019050919050565b6000611291826110e8565b61129b81856110f3565b93506112a683611104565b8060005b838110156112d75781516112be8882611261565b97506112c983611279565b9250506001810190506112aa565b5085935050505092915050565b600060208201905081810360008301526112fe8184611286565b905092915050565b61130f8161101f565b82525050565b600060208201905061132a6000830184611306565b92915050565b60008151905061133f81610ff3565b92915050565b60006020828403121561135b5761135a610fbc565b5b600061136984828501611330565b91505092915050565b600082825260208201905092915050565b7f6f6e6c79206f776e6572732063616e2073656c6c206974656d73000000000000600082015250565b60006113b9601a83611372565b91506113c482611383565b602082019050919050565b600060208201905081810360008301526113e8816113ac565b9050919050565b7f5072696365206d75737420626520657175616c20746f206c697374696e67207060008201527f7269636500000000000000000000000000000000000000000000000000000000602082015250565b600061144b602483611372565b9150611456826113ef565b604082019050919050565b6000602082019050818103600083015261147a8161143e565b9050919050565b7f5072696365206d7573742062652061626f7665207a65726f0000000000000000600082015250565b60006114b7601883611372565b91506114c282611481565b602082019050919050565b600060208201905081810360008301526114e6816114aa565b9050919050565b6114f681610fe1565b82525050565b600060608201905061151160008301866114ed565b61151e60208301856114ed565b61152b6040830184611306565b949350505050565b60006080820190506115486000830187611306565b6115556020830186611306565b61156260408301856114ed565b61156f6060830184611306565b95945050505050565b600060608201905061158d6000830186611306565b61159a6020830185611306565b6115a760408301846114ed565b949350505050565b7f4e487b7100000000000000000000000000000000000000000000000000000000600052601160045260246000fd5b60006115e98261101f565b91506115f48361101f565b925082821015611607576116066115af565b5b828203905092915050565b7f4e487b7100000000000000000000000000000000000000000000000000000000600052604160045260246000fd5b7f4e487b7100000000000000000000000000000000000000000000000000000000600052603260045260246000fd5b600061167b8261101f565b91506116868361101f565b9250827fffffffffffffffffffffffffffffffffffffffffffffffffffffffffffffffff038211156116bb576116ba6115af565b5b828201905092915050565b60006116d18261101f565b91507fffffffffffffffffffffffffffffffffffffffffffffffffffffffffffffffff8203611703576117026115af565b5b600182019050919050565b7f506c65617365207375626d6974207468652061736b696e67207072696365206960008201527f6e206f7264657220746f20636f6d706c65746520707572636861736500000000602082015250565b600061176a603c83611372565b91506117758261170e565b604082019050919050565b600060208201905081810360008301526117998161175d565b9050919050565b6000819050919050565b60006117c56117c06117bb84610fc1565b6117a0565b610fc1565b9050919050565b60006117d7826117aa565b9050919050565b60006117e9826117cc565b9050919050565b6117f9816117de565b82525050565b600060a0820190506118146000830188611306565b6118216020830187611306565b61182e60408301866117f0565b61183b60608301856114ed565b6118486080830184611306565b969550505050505056fea264697066735822122061b025832611ed85e8c67c9db88b91f9a6b736e480ca5bebb46991dd3dad441764736f6c634300080f0033",
  "immutableReferences": {},
  "source": "// SPDX-License-Identifier: MIT\npragma solidity ^0.8.7;\n\nimport \"@openzeppelin/contracts/token/ERC721/ERC721.sol\";\nimport \"@openzeppelin/contracts/utils/Counters.sol\";\n\ncontract LeaSeaMarket {\n    using Counters for Counters.Counter;\n    Counters.Counter private _itemIds;\n    Counters.Counter private _itemsSoldOrCanceled;\n    uint256 listingPrice = 0.02 ether;\n    constructor () {}\n\n    mapping(uint256 => MarketItem) idMarketItem;\n\n    enum ItemStatus {  \n        ON_SALE, SOLD, CANCELED\n    }\n\n    struct NFTToken {\n        address contractAddr;\n        uint256 tokenId;\n    }\n\n    struct MarketItem {\n        uint256 itemId;\n        NFTToken token;\n        address payable seller;\n        uint256 price;\n        ItemStatus itemStatus;\n    }\n\n    event ItemCreated (\n        uint256 tokenId,\n        uint256 itemId,\n        address seller,\n        uint256 price\n    );\n\n    event ItemSold (\n        uint256 tokenId,\n        uint256 itemId,\n        address seller,\n        address buyer,\n        uint256 price\n    );\n\n    event SaleCanceled (\n        uint256 tokenId,\n        uint256 itemId,\n        address seller\n    );\n\n    function sell(\n        address _contractAddr,\n        uint256 _tokenId,\n        uint256 _price\n    ) public payable {\n        require(msg.sender == ERC721(_contractAddr).ownerOf(_tokenId),  \"only owners can sell items\");\n        require(msg.value == listingPrice, \"Price must be equal to listing price\");\n        require(_price > 0, \"Price must be above zero\");\n\n        _itemIds.increment();\n        uint256 itemId = _itemIds.current();\n\n        idMarketItem[itemId] = MarketItem({\n            itemId: itemId,\n            token: NFTToken({\n                contractAddr: _contractAddr,\n                tokenId: _tokenId\n            }),\n            seller: payable(msg.sender),\n            price: _price,\n            itemStatus: ItemStatus.ON_SALE\n        });\n\n        ERC721(_contractAddr).transferFrom(msg.sender, address(this), _tokenId);\n\n        emit ItemCreated(\n            _tokenId,\n            itemId,\n            msg.sender,\n            _price\n        );\n    }\n\n    function cancel(\n        address _contractAddr,\n        uint256 _itemId\n    ) public {\n        // require(msg.sender == idMarketItem[_itemId].seller, \"only seller can cancel\");\n        // require(ItemStatus.ON_SALE == idMarketItem[_itemId].itemStatus, \"item is not on sale\");\n\n        uint tokenId = idMarketItem[_itemId].token.tokenId;\n\n        if (\n            msg.sender == idMarketItem[_itemId].seller &&\n            idMarketItem[_itemId].itemStatus == ItemStatus.ON_SALE\n        ) {\n            ERC721(_contractAddr).transferFrom(address(this), msg.sender, tokenId);\n            idMarketItem[_itemId].itemStatus = ItemStatus.CANCELED;\n            _itemsSoldOrCanceled.increment();\n        }\n        \n\n        emit SaleCanceled(\n            tokenId,\n            _itemId,\n            msg.sender\n        );\n    }\n\n    function buy(\n        address _contractAddr,\n        uint256 _itemId\n    ) public payable {\n        uint price = idMarketItem[_itemId].price;\n        uint tokenId = idMarketItem[_itemId].token.tokenId;\n\n        require(msg.value == price, \"Please submit the asking price in order to complete purchase\");\n\n        idMarketItem[_itemId].seller.transfer(msg.value);\n\n        ERC721(_contractAddr).transferFrom(address(this), msg.sender, tokenId);\n        idMarketItem[_itemId].itemStatus = ItemStatus.SOLD;\n        _itemsSoldOrCanceled.increment();\n\n        emit ItemSold(\n            tokenId,\n            _itemId,\n            idMarketItem[_itemId].seller,\n            msg.sender,\n            price\n        );\n    }\n\n    function fetchItemsOnSale() public view returns (MarketItem[] memory) {\n        uint itemCount = _itemIds.current();\n        uint unsoldItemCount = _itemIds.current() - _itemsSoldOrCanceled.current();\n        uint currentIndex = 0;\n\n        MarketItem[] memory items =  new MarketItem[](unsoldItemCount);\n\n        for (uint i = 1; i <= itemCount; i++) {\n            if (idMarketItem[i].itemStatus == ItemStatus.ON_SALE) {\n                uint currentId = idMarketItem[i].itemId;\n                MarketItem storage currentItem = idMarketItem[currentId];\n                items[currentIndex] = currentItem;\n                currentIndex += 1;\n            }\n        }\n        return items;\n    }\n\n    function fetchMyItemsOnSale() public view returns (MarketItem[] memory) {\n        uint totalItemCount = _itemIds.current();\n\n        uint itemCount = 0;\n        uint currentIndex = 0;\n\n        for (uint i = 1; i <= totalItemCount; i++) {\n            if (\n                idMarketItem[i].itemStatus == ItemStatus.ON_SALE\n                && idMarketItem[i].seller == msg.sender\n            ) {\n                itemCount += 1;\n            }\n        }\n\n        MarketItem[] memory items = new MarketItem[](itemCount);\n        for (uint i = 1; i <= totalItemCount; i++) {\n            if (\n                idMarketItem[i].itemStatus == ItemStatus.ON_SALE\n                && idMarketItem[i].seller == msg.sender\n            ) {\n                uint currentId = idMarketItem[i].itemId;\n                MarketItem storage currentItem = idMarketItem[currentId];\n                items[currentIndex] = currentItem;\n                currentIndex += 1;\n            }\n        }\n        return items;\n    }\n}\n",
  "sourcePath": "/Users/rokrokss/workspace/hyein/BEB-05-LeeSea/contract/contracts/LeaSeaMarket.sol",
  "compiler": {
    "name": "solc",
    "version": "0.8.15+commit.e14f2714.Emscripten.clang"
  },
  "schemaVersion": "3.4.8",
  "updatedAt": "2022-08-16T01:58:41.928Z",
  "devdoc": {
    "kind": "dev",
    "methods": {},
    "version": 1
  },
  "userdoc": {
    "kind": "user",
    "methods": {},
    "version": 1
  }
}