{
  "contractName": "LeeSeaMarket",
  "abi": [
    {
      "inputs": [],
      "stateMutability": "nonpayable",
      "type": "constructor"
    },
    {
      "anonymous": false,
      "inputs": [
        {
          "indexed": false,
          "internalType": "uint256",
          "name": "tokenId",
          "type": "uint256"
        },
        {
          "indexed": false,
          "internalType": "uint256",
          "name": "itemId",
          "type": "uint256"
        },
        {
          "indexed": false,
          "internalType": "address",
          "name": "seller",
          "type": "address"
        },
        {
          "indexed": false,
          "internalType": "uint256",
          "name": "price",
          "type": "uint256"
        }
      ],
      "name": "ItemCreated",
      "type": "event"
    },
    {
      "anonymous": false,
      "inputs": [
        {
          "indexed": false,
          "internalType": "uint256",
          "name": "tokenId",
          "type": "uint256"
        },
        {
          "indexed": false,
          "internalType": "uint256",
          "name": "itemId",
          "type": "uint256"
        },
        {
          "indexed": false,
          "internalType": "address",
          "name": "seller",
          "type": "address"
        },
        {
          "indexed": false,
          "internalType": "address",
          "name": "buyer",
          "type": "address"
        },
        {
          "indexed": false,
          "internalType": "uint256",
          "name": "price",
          "type": "uint256"
        }
      ],
      "name": "ItemSold",
      "type": "event"
    },
    {
      "anonymous": false,
      "inputs": [
        {
          "indexed": false,
          "internalType": "uint256",
          "name": "tokenId",
          "type": "uint256"
        },
        {
          "indexed": false,
          "internalType": "uint256",
          "name": "itemId",
          "type": "uint256"
        },
        {
          "indexed": false,
          "internalType": "address",
          "name": "seller",
          "type": "address"
        }
      ],
      "name": "SaleCanceled",
      "type": "event"
    },
    {
      "inputs": [
        {
          "internalType": "address",
          "name": "_contractAddr",
          "type": "address"
        },
        {
          "internalType": "uint256",
          "name": "_tokenId",
          "type": "uint256"
        },
        {
          "internalType": "uint256",
          "name": "_price",
          "type": "uint256"
        }
      ],
      "name": "sell",
      "outputs": [],
      "stateMutability": "payable",
      "type": "function"
    },
    {
      "inputs": [
        {
          "internalType": "address",
          "name": "_contractAddr",
          "type": "address"
        },
        {
          "internalType": "uint256",
          "name": "_itemId",
          "type": "uint256"
        }
      ],
      "name": "saleCancel",
      "outputs": [],
      "stateMutability": "nonpayable",
      "type": "function"
    },
    {
      "inputs": [
        {
          "internalType": "address",
          "name": "_contractAddr",
          "type": "address"
        },
        {
          "internalType": "uint256",
          "name": "_itemId",
          "type": "uint256"
        }
      ],
      "name": "buy",
      "outputs": [],
      "stateMutability": "payable",
      "type": "function"
    },
    {
      "inputs": [],
      "name": "fetchItemsOnSale",
      "outputs": [
        {
          "components": [
            {
              "internalType": "uint256",
              "name": "itemId",
              "type": "uint256"
            },
            {
              "components": [
                {
                  "internalType": "address",
                  "name": "contractAddr",
                  "type": "address"
                },
                {
                  "internalType": "uint256",
                  "name": "tokenId",
                  "type": "uint256"
                }
              ],
              "internalType": "struct LeeSeaMarket.NFTToken",
              "name": "token",
              "type": "tuple"
            },
            {
              "internalType": "address payable",
              "name": "seller",
              "type": "address"
            },
            {
              "internalType": "uint256",
              "name": "price",
              "type": "uint256"
            },
            {
              "internalType": "enum LeeSeaMarket.ItemStatus",
              "name": "itemStatus",
              "type": "uint8"
            }
          ],
          "internalType": "struct LeeSeaMarket.MarketItem[]",
          "name": "",
          "type": "tuple[]"
        }
      ],
      "stateMutability": "view",
      "type": "function"
    },
    {
      "inputs": [],
      "name": "fetchMyItemsOnSale",
      "outputs": [
        {
          "components": [
            {
              "internalType": "uint256",
              "name": "itemId",
              "type": "uint256"
            },
            {
              "components": [
                {
                  "internalType": "address",
                  "name": "contractAddr",
                  "type": "address"
                },
                {
                  "internalType": "uint256",
                  "name": "tokenId",
                  "type": "uint256"
                }
              ],
              "internalType": "struct LeeSeaMarket.NFTToken",
              "name": "token",
              "type": "tuple"
            },
            {
              "internalType": "address payable",
              "name": "seller",
              "type": "address"
            },
            {
              "internalType": "uint256",
              "name": "price",
              "type": "uint256"
            },
            {
              "internalType": "enum LeeSeaMarket.ItemStatus",
              "name": "itemStatus",
              "type": "uint8"
            }
          ],
          "internalType": "struct LeeSeaMarket.MarketItem[]",
          "name": "",
          "type": "tuple[]"
        }
      ],
      "stateMutability": "view",
      "type": "function"
    }
  ],
  "bytecode": "0x6080604052655af3107a400060025534801561001a57600080fd5b506119d08061002a6000396000f3fe60806040526004361061004a5760003560e01c80631697e40b1461004f5780636a27246214610078578063a64fc3fa14610094578063ae9eb1ed146100bf578063cce7ec13146100ea575b600080fd5b34801561005b57600080fd5b50610076600480360381019061007191906110c5565b610106565b005b610092600480360381019061008d9190611105565b61034a565b005b3480156100a057600080fd5b506100a96106f9565b6040516100b69190611354565b60405180910390f35b3480156100cb57600080fd5b506100d4610986565b6040516100e19190611354565b60405180910390f35b61010460048036038101906100ff91906110c5565b610d50565b005b6003600082815260200190815260200160002060030160009054906101000a900473ffffffffffffffffffffffffffffffffffffffff1673ffffffffffffffffffffffffffffffffffffffff163373ffffffffffffffffffffffffffffffffffffffff16146101aa576040517f08c379a00000000000000000000000000000000000000000000000000000000081526004016101a1906113d3565b60405180910390fd5b6003600082815260200190815260200160002060050160009054906101000a900460ff1660028111156101e0576101df6111f2565b5b600060028111156101f4576101f36111f2565b5b14610234576040517f08c379a000000000000000000000000000000000000000000000000000000000815260040161022b9061143f565b60405180910390fd5b6000600360008381526020019081526020016000206001016001015490508273ffffffffffffffffffffffffffffffffffffffff166323b872dd3033846040518463ffffffff1660e01b815260040161028f9392919061147d565b600060405180830381600087803b1580156102a957600080fd5b505af11580156102bd573d6000803e3d6000fd5b5050505060026003600084815260200190815260200160002060050160006101000a81548160ff021916908360028111156102fb576102fa6111f2565b5b021790555061030a6001610f7b565b7fd3bffea3a9501b0422f789f4c0797d9cdcb9e89dd65de11b04e9b0079ea4e2a781833360405161033d939291906114b4565b60405180910390a1505050565b8273ffffffffffffffffffffffffffffffffffffffff16636352211e836040518263ffffffff1660e01b815260040161038391906114eb565b602060405180830381865afa1580156103a0573d6000803e3d6000fd5b505050506040513d601f19601f820116820180604052508101906103c4919061151b565b73ffffffffffffffffffffffffffffffffffffffff163373ffffffffffffffffffffffffffffffffffffffff1614610431576040517f08c379a000000000000000000000000000000000000000000000000000000000815260040161042890611594565b60405180910390fd5b6002543414610475576040517f08c379a000000000000000000000000000000000000000000000000000000000815260040161046c90611626565b60405180910390fd5b600081116104b8576040517f08c379a00000000000000000000000000000000000000000000000000000000081526004016104af90611692565b60405180910390fd5b6104c26000610f7b565b60006104ce6000610f91565b90506040518060a0016040528082815260200160405180604001604052808773ffffffffffffffffffffffffffffffffffffffff1681526020018681525081526020013373ffffffffffffffffffffffffffffffffffffffff16815260200183815260200160006002811115610547576105466111f2565b5b815250600360008381526020019081526020016000206000820151816000015560208201518160010160008201518160000160006101000a81548173ffffffffffffffffffffffffffffffffffffffff021916908373ffffffffffffffffffffffffffffffffffffffff16021790555060208201518160010155505060408201518160030160006101000a81548173ffffffffffffffffffffffffffffffffffffffff021916908373ffffffffffffffffffffffffffffffffffffffff1602179055506060820151816004015560808201518160050160006101000a81548160ff0219169083600281111561063f5761063e6111f2565b5b02179055509050508373ffffffffffffffffffffffffffffffffffffffff166323b872dd3330866040518463ffffffff1660e01b81526004016106849392919061147d565b600060405180830381600087803b15801561069e57600080fd5b505af11580156106b2573d6000803e3d6000fd5b505050507f8b583604758a4c6c995171787709d2caa670e019b68bfb687d2c9fa77e538059838233856040516106eb94939291906116b2565b60405180910390a150505050565b606060006107076000610f91565b905060006107156001610f91565b61071f6000610f91565b6107299190611726565b90506000808267ffffffffffffffff8111156107485761074761175a565b5b60405190808252806020026020018201604052801561078157816020015b61076e610f9f565b8152602001906001900390816107665790505b5090506000600190505b84811161097b57600060028111156107a6576107a56111f2565b5b6003600083815260200190815260200160002060050160009054906101000a900460ff1660028111156107dc576107db6111f2565b5b03610968576000600360008381526020019081526020016000206000015490506000600360008381526020019081526020016000209050806040518060a001604052908160008201548152602001600182016040518060400160405290816000820160009054906101000a900473ffffffffffffffffffffffffffffffffffffffff1673ffffffffffffffffffffffffffffffffffffffff1673ffffffffffffffffffffffffffffffffffffffff16815260200160018201548152505081526020016003820160009054906101000a900473ffffffffffffffffffffffffffffffffffffffff1673ffffffffffffffffffffffffffffffffffffffff1673ffffffffffffffffffffffffffffffffffffffff168152602001600482015481526020016005820160009054906101000a900460ff166002811115610922576109216111f2565b5b6002811115610934576109336111f2565b5b8152505084868151811061094b5761094a611789565b5b602002602001018190525060018561096391906117b8565b945050505b80806109739061180e565b91505061078b565b508094505050505090565b606060006109946000610f91565b90506000806000600190505b838111610a8757600060028111156109bb576109ba6111f2565b5b6003600083815260200190815260200160002060050160009054906101000a900460ff1660028111156109f1576109f06111f2565b5b148015610a5f57503373ffffffffffffffffffffffffffffffffffffffff166003600083815260200190815260200160002060030160009054906101000a900473ffffffffffffffffffffffffffffffffffffffff1673ffffffffffffffffffffffffffffffffffffffff16145b15610a7457600183610a7191906117b8565b92505b8080610a7f9061180e565b9150506109a0565b5060008267ffffffffffffffff811115610aa457610aa361175a565b5b604051908082528060200260200182016040528015610add57816020015b610aca610f9f565b815260200190600190039081610ac25790505b5090506000600190505b848111610d455760006002811115610b0257610b016111f2565b5b6003600083815260200190815260200160002060050160009054906101000a900460ff166002811115610b3857610b376111f2565b5b148015610ba657503373ffffffffffffffffffffffffffffffffffffffff166003600083815260200190815260200160002060030160009054906101000a900473ffffffffffffffffffffffffffffffffffffffff1673ffffffffffffffffffffffffffffffffffffffff16145b15610d32576000600360008381526020019081526020016000206000015490506000600360008381526020019081526020016000209050806040518060a001604052908160008201548152602001600182016040518060400160405290816000820160009054906101000a900473ffffffffffffffffffffffffffffffffffffffff1673ffffffffffffffffffffffffffffffffffffffff1673ffffffffffffffffffffffffffffffffffffffff16815260200160018201548152505081526020016003820160009054906101000a900473ffffffffffffffffffffffffffffffffffffffff1673ffffffffffffffffffffffffffffffffffffffff1673ffffffffffffffffffffffffffffffffffffffff168152602001600482015481526020016005820160009054906101000a900460ff166002811115610cec57610ceb6111f2565b5b6002811115610cfe57610cfd6111f2565b5b81525050848681518110610d1557610d14611789565b5b6020026020010181905250600185610d2d91906117b8565b945050505b8080610d3d9061180e565b915050610ae7565b508094505050505090565b600060036000838152602001908152602001600020600401549050600060036000848152602001908152602001600020600101600101549050813414610dcb576040517f08c379a0000000000000000000000000000000000000000000000000000000008152600401610dc2906118c8565b60405180910390fd5b6003600084815260200190815260200160002060030160009054906101000a900473ffffffffffffffffffffffffffffffffffffffff1673ffffffffffffffffffffffffffffffffffffffff166108fc349081150290604051600060405180830381858888f19350505050158015610e47573d6000803e3d6000fd5b508373ffffffffffffffffffffffffffffffffffffffff166323b872dd3033846040518463ffffffff1660e01b8152600401610e859392919061147d565b600060405180830381600087803b158015610e9f57600080fd5b505af1158015610eb3573d6000803e3d6000fd5b5050505060016003600085815260200190815260200160002060050160006101000a81548160ff02191690836002811115610ef157610ef06111f2565b5b0217905550610f006001610f7b565b7f636c891e1c595c5879015e9f0767c0138ec002c115fa5425d3a585252e13a1ed81846003600087815260200190815260200160002060030160009054906101000a900473ffffffffffffffffffffffffffffffffffffffff163386604051610f6d959493929190611947565b60405180910390a150505050565b6001816000016000828254019250508190555050565b600081600001549050919050565b6040518060a0016040528060008152602001610fb9610ffc565b8152602001600073ffffffffffffffffffffffffffffffffffffffff1681526020016000815260200160006002811115610ff657610ff56111f2565b5b81525090565b6040518060400160405280600073ffffffffffffffffffffffffffffffffffffffff168152602001600081525090565b600080fd5b600073ffffffffffffffffffffffffffffffffffffffff82169050919050565b600061105c82611031565b9050919050565b61106c81611051565b811461107757600080fd5b50565b60008135905061108981611063565b92915050565b6000819050919050565b6110a28161108f565b81146110ad57600080fd5b50565b6000813590506110bf81611099565b92915050565b600080604083850312156110dc576110db61102c565b5b60006110ea8582860161107a565b92505060206110fb858286016110b0565b9150509250929050565b60008060006060848603121561111e5761111d61102c565b5b600061112c8682870161107a565b935050602061113d868287016110b0565b925050604061114e868287016110b0565b9150509250925092565b600081519050919050565b600082825260208201905092915050565b6000819050602082019050919050565b61118d8161108f565b82525050565b61119c81611051565b82525050565b6040820160008201516111b86000850182611193565b5060208201516111cb6020850182611184565b50505050565b60006111dc82611031565b9050919050565b6111ec816111d1565b82525050565b7f4e487b7100000000000000000000000000000000000000000000000000000000600052602160045260246000fd5b60038110611232576112316111f2565b5b50565b600081905061124382611221565b919050565b600061125382611235565b9050919050565b61126381611248565b82525050565b60c08201600082015161127f6000850182611184565b50602082015161129260208501826111a2565b5060408201516112a560608501826111e3565b5060608201516112b86080850182611184565b5060808201516112cb60a085018261125a565b50505050565b60006112dd8383611269565b60c08301905092915050565b6000602082019050919050565b600061130182611158565b61130b8185611163565b935061131683611174565b8060005b8381101561134757815161132e88826112d1565b9750611339836112e9565b92505060018101905061131a565b5085935050505092915050565b6000602082019050818103600083015261136e81846112f6565b905092915050565b600082825260208201905092915050565b7f6f6e6c792073656c6c65722063616e2063616e63656c00000000000000000000600082015250565b60006113bd601683611376565b91506113c882611387565b602082019050919050565b600060208201905081810360008301526113ec816113b0565b9050919050565b7f6974656d206973206e6f74206f6e2073616c6500000000000000000000000000600082015250565b6000611429601383611376565b9150611434826113f3565b602082019050919050565b600060208201905081810360008301526114588161141c565b9050919050565b61146881611051565b82525050565b6114778161108f565b82525050565b6000606082019050611492600083018661145f565b61149f602083018561145f565b6114ac604083018461146e565b949350505050565b60006060820190506114c9600083018661146e565b6114d6602083018561146e565b6114e3604083018461145f565b949350505050565b6000602082019050611500600083018461146e565b92915050565b60008151905061151581611063565b92915050565b6000602082840312156115315761153061102c565b5b600061153f84828501611506565b91505092915050565b7f6f6e6c79206f776e6572732063616e2073656c6c206974656d73000000000000600082015250565b600061157e601a83611376565b915061158982611548565b602082019050919050565b600060208201905081810360008301526115ad81611571565b9050919050565b7f5072696365206d75737420626520657175616c20746f206c697374696e67207060008201527f7269636500000000000000000000000000000000000000000000000000000000602082015250565b6000611610602483611376565b915061161b826115b4565b604082019050919050565b6000602082019050818103600083015261163f81611603565b9050919050565b7f5072696365206d7573742062652061626f7665207a65726f0000000000000000600082015250565b600061167c601883611376565b915061168782611646565b602082019050919050565b600060208201905081810360008301526116ab8161166f565b9050919050565b60006080820190506116c7600083018761146e565b6116d4602083018661146e565b6116e1604083018561145f565b6116ee606083018461146e565b95945050505050565b7f4e487b7100000000000000000000000000000000000000000000000000000000600052601160045260246000fd5b60006117318261108f565b915061173c8361108f565b92508282101561174f5761174e6116f7565b5b828203905092915050565b7f4e487b7100000000000000000000000000000000000000000000000000000000600052604160045260246000fd5b7f4e487b7100000000000000000000000000000000000000000000000000000000600052603260045260246000fd5b60006117c38261108f565b91506117ce8361108f565b9250827fffffffffffffffffffffffffffffffffffffffffffffffffffffffffffffffff03821115611803576118026116f7565b5b828201905092915050565b60006118198261108f565b91507fffffffffffffffffffffffffffffffffffffffffffffffffffffffffffffffff820361184b5761184a6116f7565b5b600182019050919050565b7f506c65617365207375626d6974207468652061736b696e67207072696365206960008201527f6e206f7264657220746f20636f6d706c65746520707572636861736500000000602082015250565b60006118b2603c83611376565b91506118bd82611856565b604082019050919050565b600060208201905081810360008301526118e1816118a5565b9050919050565b6000819050919050565b600061190d61190861190384611031565b6118e8565b611031565b9050919050565b600061191f826118f2565b9050919050565b600061193182611914565b9050919050565b61194181611926565b82525050565b600060a08201905061195c600083018861146e565b611969602083018761146e565b6119766040830186611938565b611983606083018561145f565b611990608083018461146e565b969550505050505056fea2646970667358221220b49788bf13beb8338dfd71caea88202a7979cc3fa1e20c8b63717538113dd3bb64736f6c634300080f0033",
  "immutableReferences": {},
  "source": "// SPDX-License-Identifier: MIT\npragma solidity ^0.8.7;\n\nimport \"@openzeppelin/contracts/token/ERC721/ERC721.sol\";\nimport \"@openzeppelin/contracts/utils/Counters.sol\";\n\ncontract LeeSeaMarket {\n    using Counters for Counters.Counter;\n    Counters.Counter private _itemIds;\n    Counters.Counter private _itemsSoldOrCanceled;\n    uint256 listingPrice = 0.0001 ether;\n    constructor () {}\n\n    mapping(uint256 => MarketItem) idMarketItem;\n\n    enum ItemStatus {  \n        ON_SALE, SOLD, SALE_CANCELED\n    }\n\n    struct NFTToken {\n        address contractAddr;\n        uint256 tokenId;\n    }\n\n    struct MarketItem {\n        uint256 itemId;\n        NFTToken token;\n        address payable seller;\n        uint256 price;\n        ItemStatus itemStatus;\n    }\n\n    event ItemCreated (\n        uint256 tokenId,\n        uint256 itemId,\n        address seller,\n        uint256 price\n    );\n\n    event ItemSold (\n        uint256 tokenId,\n        uint256 itemId,\n        address seller,\n        address buyer,\n        uint256 price\n    );\n\n    event SaleCanceled (\n        uint256 tokenId,\n        uint256 itemId,\n        address seller\n    );\n\n    function sell(\n        address _contractAddr,\n        uint256 _tokenId,\n        uint256 _price\n    ) public payable {\n        require(msg.sender == ERC721(_contractAddr).ownerOf(_tokenId),  \"only owners can sell items\");\n        require(msg.value == listingPrice, \"Price must be equal to listing price\");\n        require(_price > 0, \"Price must be above zero\");\n\n        _itemIds.increment();\n        uint256 itemId = _itemIds.current();\n\n        idMarketItem[itemId] = MarketItem({\n            itemId: itemId,\n            token: NFTToken({\n                contractAddr: _contractAddr,\n                tokenId: _tokenId\n            }),\n            seller: payable(msg.sender),\n            price: _price,\n            itemStatus: ItemStatus.ON_SALE\n        });\n\n        ERC721(_contractAddr).transferFrom(msg.sender, address(this), _tokenId);\n\n        emit ItemCreated(\n            _tokenId,\n            itemId,\n            msg.sender,\n            _price\n        );\n    }\n\n    function saleCancel(\n        address _contractAddr,\n        uint256 _itemId\n    ) public {\n        require(msg.sender == idMarketItem[_itemId].seller, \"only seller can cancel\");\n        require(ItemStatus.ON_SALE == idMarketItem[_itemId].itemStatus, \"item is not on sale\");\n\n        uint tokenId = idMarketItem[_itemId].token.tokenId;\n\n        ERC721(_contractAddr).transferFrom(address(this), msg.sender, tokenId);\n\n        idMarketItem[_itemId].itemStatus = ItemStatus.SALE_CANCELED;\n        _itemsSoldOrCanceled.increment();\n        \n\n        emit SaleCanceled(\n            tokenId,\n            _itemId,\n            msg.sender\n        );\n    }\n\n    function buy(\n        address _contractAddr,\n        uint256 _itemId\n    ) public payable {\n        uint price = idMarketItem[_itemId].price;\n        uint tokenId = idMarketItem[_itemId].token.tokenId;\n\n        require(msg.value == price, \"Please submit the asking price in order to complete purchase\");\n\n        idMarketItem[_itemId].seller.transfer(msg.value);\n\n        ERC721(_contractAddr).transferFrom(address(this), msg.sender, tokenId);\n        idMarketItem[_itemId].itemStatus = ItemStatus.SOLD;\n        _itemsSoldOrCanceled.increment();\n\n        emit ItemSold(\n            tokenId,\n            _itemId,\n            idMarketItem[_itemId].seller,\n            msg.sender,\n            price\n        );\n    }\n\n    function fetchItemsOnSale() public view returns (MarketItem[] memory) {\n        uint itemCount = _itemIds.current();\n        uint unsoldItemCount = _itemIds.current() - _itemsSoldOrCanceled.current();\n        uint currentIndex = 0;\n\n        MarketItem[] memory items =  new MarketItem[](unsoldItemCount);\n\n        for (uint i = 1; i <= itemCount; i++) {\n            if (idMarketItem[i].itemStatus == ItemStatus.ON_SALE) {\n                uint currentId = idMarketItem[i].itemId;\n                MarketItem storage currentItem = idMarketItem[currentId];\n                items[currentIndex] = currentItem;\n                currentIndex += 1;\n            }\n        }\n        return items;\n    }\n\n    function fetchMyItemsOnSale() public view returns (MarketItem[] memory) {\n        uint totalItemCount = _itemIds.current();\n\n        uint itemCount = 0;\n        uint currentIndex = 0;\n\n        for (uint i = 1; i <= totalItemCount; i++) {\n            if (\n                idMarketItem[i].itemStatus == ItemStatus.ON_SALE\n                && idMarketItem[i].seller == msg.sender\n            ) {\n                itemCount += 1;\n            }\n        }\n\n        MarketItem[] memory items = new MarketItem[](itemCount);\n        for (uint i = 1; i <= totalItemCount; i++) {\n            if (\n                idMarketItem[i].itemStatus == ItemStatus.ON_SALE\n                && idMarketItem[i].seller == msg.sender\n            ) {\n                uint currentId = idMarketItem[i].itemId;\n                MarketItem storage currentItem = idMarketItem[currentId];\n                items[currentIndex] = currentItem;\n                currentIndex += 1;\n            }\n        }\n        return items;\n    }\n}\n",
  "sourcePath": "/Users/hyenne/workspace/BEB-05-LeeSea/contract/contracts/LeeSeaMarket.sol",
  "compiler": {
    "name": "solc",
    "version": "0.8.15+commit.e14f2714.Emscripten.clang"
  },
  "schemaVersion": "3.4.9",
  "updatedAt": "2022-08-21T10:42:00.205Z",
  "devdoc": {
    "kind": "dev",
    "methods": {},
    "version": 1
  },
  "userdoc": {
    "kind": "user",
    "methods": {},
    "version": 1
  }
}