{
  "contractName": "TransferWhaleNFT",
  "abi": [
    {
      "inputs": [],
      "stateMutability": "nonpayable",
      "type": "constructor"
    },
    {
      "anonymous": false,
      "inputs": [
        {
          "indexed": false,
          "internalType": "uint256",
          "name": "tokenId",
          "type": "uint256"
        },
        {
          "indexed": false,
          "internalType": "uint256",
          "name": "itemId",
          "type": "uint256"
        },
        {
          "indexed": false,
          "internalType": "address",
          "name": "seller",
          "type": "address"
        },
        {
          "indexed": false,
          "internalType": "uint256",
          "name": "price",
          "type": "uint256"
        }
      ],
      "name": "ItemCreated",
      "type": "event"
    },
    {
      "anonymous": false,
      "inputs": [
        {
          "indexed": false,
          "internalType": "uint256",
          "name": "tokenId",
          "type": "uint256"
        },
        {
          "indexed": false,
          "internalType": "uint256",
          "name": "itemId",
          "type": "uint256"
        },
        {
          "indexed": false,
          "internalType": "address",
          "name": "seller",
          "type": "address"
        },
        {
          "indexed": false,
          "internalType": "address",
          "name": "buyer",
          "type": "address"
        },
        {
          "indexed": false,
          "internalType": "uint256",
          "name": "price",
          "type": "uint256"
        }
      ],
      "name": "ItemSold",
      "type": "event"
    },
    {
      "inputs": [
        {
          "internalType": "address",
          "name": "_contractAddr",
          "type": "address"
        },
        {
          "internalType": "uint256",
          "name": "_tokenId",
          "type": "uint256"
        },
        {
          "internalType": "uint256",
          "name": "_price",
          "type": "uint256"
        }
      ],
      "name": "sell",
      "outputs": [],
      "stateMutability": "nonpayable",
      "type": "function"
    },
    {
      "inputs": [
        {
          "internalType": "address",
          "name": "_contractAddr",
          "type": "address"
        },
        {
          "internalType": "uint256",
          "name": "_itemId",
          "type": "uint256"
        }
      ],
      "name": "buy",
      "outputs": [],
      "stateMutability": "payable",
      "type": "function"
    },
    {
      "inputs": [],
      "name": "fetchItemsOnSale",
      "outputs": [
        {
          "components": [
            {
              "internalType": "uint256",
              "name": "itemId",
              "type": "uint256"
            },
            {
              "components": [
                {
                  "internalType": "address",
                  "name": "contractAddr",
                  "type": "address"
                },
                {
                  "internalType": "uint256",
                  "name": "tokenId",
                  "type": "uint256"
                }
              ],
              "internalType": "struct TransferWhaleNFT.NFTToken",
              "name": "token",
              "type": "tuple"
            },
            {
              "internalType": "address payable",
              "name": "seller",
              "type": "address"
            },
            {
              "internalType": "uint256",
              "name": "price",
              "type": "uint256"
            },
            {
              "internalType": "enum TransferWhaleNFT.ItemStatus",
              "name": "itemStatus",
              "type": "uint8"
            }
          ],
          "internalType": "struct TransferWhaleNFT.MarketItem[]",
          "name": "",
          "type": "tuple[]"
        }
      ],
      "stateMutability": "view",
      "type": "function"
    },
    {
      "inputs": [],
      "name": "fetchMyItemsOnSale",
      "outputs": [
        {
          "components": [
            {
              "internalType": "uint256",
              "name": "itemId",
              "type": "uint256"
            },
            {
              "components": [
                {
                  "internalType": "address",
                  "name": "contractAddr",
                  "type": "address"
                },
                {
                  "internalType": "uint256",
                  "name": "tokenId",
                  "type": "uint256"
                }
              ],
              "internalType": "struct TransferWhaleNFT.NFTToken",
              "name": "token",
              "type": "tuple"
            },
            {
              "internalType": "address payable",
              "name": "seller",
              "type": "address"
            },
            {
              "internalType": "uint256",
              "name": "price",
              "type": "uint256"
            },
            {
              "internalType": "enum TransferWhaleNFT.ItemStatus",
              "name": "itemStatus",
              "type": "uint8"
            }
          ],
          "internalType": "struct TransferWhaleNFT.MarketItem[]",
          "name": "",
          "type": "tuple[]"
        }
      ],
      "stateMutability": "view",
      "type": "function"
    }
  ],
  "bytecode": "0x608060405234801561001057600080fd5b50611580806100206000396000f3fe60806040526004361061003f5760003560e01c80636a27246214610044578063a64fc3fa1461006d578063ae9eb1ed14610098578063cce7ec13146100c3575b600080fd5b34801561005057600080fd5b5061006b60048036038101906100669190610e16565b6100df565b005b34801561007957600080fd5b5061008261044a565b60405161008f9190611065565b60405180910390f35b3480156100a457600080fd5b506100ad6106d7565b6040516100ba9190611065565b60405180910390f35b6100dd60048036038101906100d89190611087565b610aa1565b005b8273ffffffffffffffffffffffffffffffffffffffff16636352211e836040518263ffffffff1660e01b815260040161011891906110d6565b602060405180830381865afa158015610135573d6000803e3d6000fd5b505050506040513d601f19601f820116820180604052508101906101599190611106565b73ffffffffffffffffffffffffffffffffffffffff163373ffffffffffffffffffffffffffffffffffffffff16146101c6576040517f08c379a00000000000000000000000000000000000000000000000000000000081526004016101bd90611190565b60405180910390fd5b60008111610209576040517f08c379a0000000000000000000000000000000000000000000000000000000008152600401610200906111fc565b60405180910390fd5b6102136000610ccc565b600061021f6000610ce2565b90506040518060a0016040528082815260200160405180604001604052808773ffffffffffffffffffffffffffffffffffffffff1681526020018681525081526020013373ffffffffffffffffffffffffffffffffffffffff1681526020018381526020016000600181111561029857610297610f03565b5b815250600260008381526020019081526020016000206000820151816000015560208201518160010160008201518160000160006101000a81548173ffffffffffffffffffffffffffffffffffffffff021916908373ffffffffffffffffffffffffffffffffffffffff16021790555060208201518160010155505060408201518160030160006101000a81548173ffffffffffffffffffffffffffffffffffffffff021916908373ffffffffffffffffffffffffffffffffffffffff1602179055506060820151816004015560808201518160050160006101000a81548160ff021916908360018111156103905761038f610f03565b5b02179055509050508373ffffffffffffffffffffffffffffffffffffffff166323b872dd3330866040518463ffffffff1660e01b81526004016103d59392919061122b565b600060405180830381600087803b1580156103ef57600080fd5b505af1158015610403573d6000803e3d6000fd5b505050507f8b583604758a4c6c995171787709d2caa670e019b68bfb687d2c9fa77e5380598382338560405161043c9493929190611262565b60405180910390a150505050565b606060006104586000610ce2565b905060006104666001610ce2565b6104706000610ce2565b61047a91906112d6565b90506000808267ffffffffffffffff8111156104995761049861130a565b5b6040519080825280602002602001820160405280156104d257816020015b6104bf610cf0565b8152602001906001900390816104b75790505b5090506000600190505b8481116106cc57600060018111156104f7576104f6610f03565b5b6002600083815260200190815260200160002060050160009054906101000a900460ff16600181111561052d5761052c610f03565b5b036106b9576000600260008381526020019081526020016000206000015490506000600260008381526020019081526020016000209050806040518060a001604052908160008201548152602001600182016040518060400160405290816000820160009054906101000a900473ffffffffffffffffffffffffffffffffffffffff1673ffffffffffffffffffffffffffffffffffffffff1673ffffffffffffffffffffffffffffffffffffffff16815260200160018201548152505081526020016003820160009054906101000a900473ffffffffffffffffffffffffffffffffffffffff1673ffffffffffffffffffffffffffffffffffffffff1673ffffffffffffffffffffffffffffffffffffffff168152602001600482015481526020016005820160009054906101000a900460ff16600181111561067357610672610f03565b5b600181111561068557610684610f03565b5b8152505084868151811061069c5761069b611339565b5b60200260200101819052506001856106b49190611368565b945050505b80806106c4906113be565b9150506104dc565b508094505050505090565b606060006106e56000610ce2565b90506000806000600190505b8381116107d8576000600181111561070c5761070b610f03565b5b6002600083815260200190815260200160002060050160009054906101000a900460ff16600181111561074257610741610f03565b5b1480156107b057503373ffffffffffffffffffffffffffffffffffffffff166002600083815260200190815260200160002060030160009054906101000a900473ffffffffffffffffffffffffffffffffffffffff1673ffffffffffffffffffffffffffffffffffffffff16145b156107c5576001836107c29190611368565b92505b80806107d0906113be565b9150506106f1565b5060008267ffffffffffffffff8111156107f5576107f461130a565b5b60405190808252806020026020018201604052801561082e57816020015b61081b610cf0565b8152602001906001900390816108135790505b5090506000600190505b848111610a96576000600181111561085357610852610f03565b5b6002600083815260200190815260200160002060050160009054906101000a900460ff16600181111561088957610888610f03565b5b1480156108f757503373ffffffffffffffffffffffffffffffffffffffff166002600083815260200190815260200160002060030160009054906101000a900473ffffffffffffffffffffffffffffffffffffffff1673ffffffffffffffffffffffffffffffffffffffff16145b15610a83576000600260008381526020019081526020016000206000015490506000600260008381526020019081526020016000209050806040518060a001604052908160008201548152602001600182016040518060400160405290816000820160009054906101000a900473ffffffffffffffffffffffffffffffffffffffff1673ffffffffffffffffffffffffffffffffffffffff1673ffffffffffffffffffffffffffffffffffffffff16815260200160018201548152505081526020016003820160009054906101000a900473ffffffffffffffffffffffffffffffffffffffff1673ffffffffffffffffffffffffffffffffffffffff1673ffffffffffffffffffffffffffffffffffffffff168152602001600482015481526020016005820160009054906101000a900460ff166001811115610a3d57610a3c610f03565b5b6001811115610a4f57610a4e610f03565b5b81525050848681518110610a6657610a65611339565b5b6020026020010181905250600185610a7e9190611368565b945050505b8080610a8e906113be565b915050610838565b508094505050505090565b600060026000838152602001908152602001600020600401549050600060026000848152602001908152602001600020600101600101549050813414610b1c576040517f08c379a0000000000000000000000000000000000000000000000000000000008152600401610b1390611478565b60405180910390fd5b6002600084815260200190815260200160002060030160009054906101000a900473ffffffffffffffffffffffffffffffffffffffff1673ffffffffffffffffffffffffffffffffffffffff166108fc349081150290604051600060405180830381858888f19350505050158015610b98573d6000803e3d6000fd5b508373ffffffffffffffffffffffffffffffffffffffff166323b872dd3033846040518463ffffffff1660e01b8152600401610bd69392919061122b565b600060405180830381600087803b158015610bf057600080fd5b505af1158015610c04573d6000803e3d6000fd5b5050505060016002600085815260200190815260200160002060050160006101000a81548160ff02191690836001811115610c4257610c41610f03565b5b0217905550610c516001610ccc565b7f636c891e1c595c5879015e9f0767c0138ec002c115fa5425d3a585252e13a1ed81846002600087815260200190815260200160002060030160009054906101000a900473ffffffffffffffffffffffffffffffffffffffff163386604051610cbe9594939291906114f7565b60405180910390a150505050565b6001816000016000828254019250508190555050565b600081600001549050919050565b6040518060a0016040528060008152602001610d0a610d4d565b8152602001600073ffffffffffffffffffffffffffffffffffffffff1681526020016000815260200160006001811115610d4757610d46610f03565b5b81525090565b6040518060400160405280600073ffffffffffffffffffffffffffffffffffffffff168152602001600081525090565b600080fd5b600073ffffffffffffffffffffffffffffffffffffffff82169050919050565b6000610dad82610d82565b9050919050565b610dbd81610da2565b8114610dc857600080fd5b50565b600081359050610dda81610db4565b92915050565b6000819050919050565b610df381610de0565b8114610dfe57600080fd5b50565b600081359050610e1081610dea565b92915050565b600080600060608486031215610e2f57610e2e610d7d565b5b6000610e3d86828701610dcb565b9350506020610e4e86828701610e01565b9250506040610e5f86828701610e01565b9150509250925092565b600081519050919050565b600082825260208201905092915050565b6000819050602082019050919050565b610e9e81610de0565b82525050565b610ead81610da2565b82525050565b604082016000820151610ec96000850182610ea4565b506020820151610edc6020850182610e95565b50505050565b6000610eed82610d82565b9050919050565b610efd81610ee2565b82525050565b7f4e487b7100000000000000000000000000000000000000000000000000000000600052602160045260246000fd5b60028110610f4357610f42610f03565b5b50565b6000819050610f5482610f32565b919050565b6000610f6482610f46565b9050919050565b610f7481610f59565b82525050565b60c082016000820151610f906000850182610e95565b506020820151610fa36020850182610eb3565b506040820151610fb66060850182610ef4565b506060820151610fc96080850182610e95565b506080820151610fdc60a0850182610f6b565b50505050565b6000610fee8383610f7a565b60c08301905092915050565b6000602082019050919050565b600061101282610e69565b61101c8185610e74565b935061102783610e85565b8060005b8381101561105857815161103f8882610fe2565b975061104a83610ffa565b92505060018101905061102b565b5085935050505092915050565b6000602082019050818103600083015261107f8184611007565b905092915050565b6000806040838503121561109e5761109d610d7d565b5b60006110ac85828601610dcb565b92505060206110bd85828601610e01565b9150509250929050565b6110d081610de0565b82525050565b60006020820190506110eb60008301846110c7565b92915050565b60008151905061110081610db4565b92915050565b60006020828403121561111c5761111b610d7d565b5b600061112a848285016110f1565b91505092915050565b600082825260208201905092915050565b7f6f6e6c79206f776e6572732063616e2073656c6c206974656d73000000000000600082015250565b600061117a601a83611133565b915061118582611144565b602082019050919050565b600060208201905081810360008301526111a98161116d565b9050919050565b7f5072696365206d7573742062652061626f7665207a65726f0000000000000000600082015250565b60006111e6601883611133565b91506111f1826111b0565b602082019050919050565b60006020820190508181036000830152611215816111d9565b9050919050565b61122581610da2565b82525050565b6000606082019050611240600083018661121c565b61124d602083018561121c565b61125a60408301846110c7565b949350505050565b600060808201905061127760008301876110c7565b61128460208301866110c7565b611291604083018561121c565b61129e60608301846110c7565b95945050505050565b7f4e487b7100000000000000000000000000000000000000000000000000000000600052601160045260246000fd5b60006112e182610de0565b91506112ec83610de0565b9250828210156112ff576112fe6112a7565b5b828203905092915050565b7f4e487b7100000000000000000000000000000000000000000000000000000000600052604160045260246000fd5b7f4e487b7100000000000000000000000000000000000000000000000000000000600052603260045260246000fd5b600061137382610de0565b915061137e83610de0565b9250827fffffffffffffffffffffffffffffffffffffffffffffffffffffffffffffffff038211156113b3576113b26112a7565b5b828201905092915050565b60006113c982610de0565b91507fffffffffffffffffffffffffffffffffffffffffffffffffffffffffffffffff82036113fb576113fa6112a7565b5b600182019050919050565b7f506c65617365207375626d6974207468652061736b696e67207072696365206960008201527f6e206f7264657220746f20636f6d706c65746520707572636861736500000000602082015250565b6000611462603c83611133565b915061146d82611406565b604082019050919050565b6000602082019050818103600083015261149181611455565b9050919050565b6000819050919050565b60006114bd6114b86114b384610d82565b611498565b610d82565b9050919050565b60006114cf826114a2565b9050919050565b60006114e1826114c4565b9050919050565b6114f1816114d6565b82525050565b600060a08201905061150c60008301886110c7565b61151960208301876110c7565b61152660408301866114e8565b611533606083018561121c565b61154060808301846110c7565b969550505050505056fea264697066735822122017f7d1d6408a61169dba9949865f45570639282a250ffea915ea8f410c1de96d64736f6c634300080f0033",
  "immutableReferences": {},
  "source": "// SPDX-License-Identifier: MIT\npragma solidity ^0.8.7;\n\nimport \"@openzeppelin/contracts/token/ERC721/ERC721.sol\";\nimport \"@openzeppelin/contracts/utils/Counters.sol\";\n\ncontract TransferWhaleNFT {\n    using Counters for Counters.Counter;\n    Counters.Counter private _itemIds;\n    Counters.Counter private _itemsSold;\n    constructor () {}\n\n    mapping(uint256 => MarketItem) idMarketItem;\n\n    enum ItemStatus {  \n        ON_SALE, SOLD\n    }\n\n    struct NFTToken {\n        address contractAddr;\n        uint256 tokenId;\n    }\n\n    struct MarketItem {\n        uint256 itemId;\n        NFTToken token;\n        address payable seller;\n        uint256 price;\n        ItemStatus itemStatus;\n    }\n\n    event ItemCreated (\n        uint256 tokenId,\n        uint256 itemId,\n        address seller,\n        uint256 price\n    );\n\n    event ItemSold (\n        uint256 tokenId,\n        uint256 itemId,\n        address seller,\n        address buyer,\n        uint256 price\n    );\n\n    function sell(\n        address _contractAddr,\n        uint256 _tokenId,\n        uint256 _price\n    ) public {\n        require(msg.sender == ERC721(_contractAddr).ownerOf(_tokenId),  \"only owners can sell items\");\n        require(_price > 0, \"Price must be above zero\");\n\n        _itemIds.increment();\n        uint256 itemId = _itemIds.current();\n\n        idMarketItem[itemId] = MarketItem({\n            itemId: itemId,\n            token: NFTToken({\n                contractAddr: _contractAddr,\n                tokenId: _tokenId\n            }),\n            seller: payable(msg.sender),\n            price: _price,\n            itemStatus: ItemStatus.ON_SALE\n        });\n\n        ERC721(_contractAddr).transferFrom(msg.sender, address(this), _tokenId);\n\n        emit ItemCreated(\n            _tokenId,\n            itemId,\n            msg.sender,\n            _price\n        );\n    }\n\n    function buy(\n        address _contractAddr,\n        uint256 _itemId\n    ) public payable {\n        uint price = idMarketItem[_itemId].price;\n        uint tokenId = idMarketItem[_itemId].token.tokenId;\n\n        require(msg.value == price, \"Please submit the asking price in order to complete purchase\");\n\n        idMarketItem[_itemId].seller.transfer(msg.value);\n\n        ERC721(_contractAddr).transferFrom(address(this), msg.sender, tokenId);\n        idMarketItem[_itemId].itemStatus = ItemStatus.SOLD;\n        _itemsSold.increment();\n\n        emit ItemSold(\n            tokenId,\n            _itemId,\n            idMarketItem[_itemId].seller,\n            msg.sender,\n            price\n        );\n    }\n\n    function fetchItemsOnSale() public view returns (MarketItem[] memory) {\n        uint itemCount = _itemIds.current();\n        uint unsoldItemCount = _itemIds.current() - _itemsSold.current();\n        uint currentIndex = 0;\n\n        MarketItem[] memory items =  new MarketItem[](unsoldItemCount);\n\n        for (uint i = 1; i <= itemCount; i++) {\n            if (idMarketItem[i].itemStatus == ItemStatus.ON_SALE) {\n                uint currentId = idMarketItem[i].itemId;\n                MarketItem storage currentItem = idMarketItem[currentId];\n                items[currentIndex] = currentItem;\n                currentIndex += 1;\n            }\n        }\n        return items;\n    }\n\n    function fetchMyItemsOnSale() public view returns (MarketItem[] memory) {\n        uint totalItemCount = _itemIds.current();\n\n        uint itemCount = 0;\n        uint currentIndex = 0;\n\n        for (uint i = 1; i <= totalItemCount; i++) {\n            if (\n                idMarketItem[i].itemStatus == ItemStatus.ON_SALE\n                && idMarketItem[i].seller == msg.sender\n            ) {\n                itemCount += 1;\n            }\n        }\n\n        MarketItem[] memory items = new MarketItem[](itemCount);\n        for (uint i = 1; i <= totalItemCount; i++) {\n            if (\n                idMarketItem[i].itemStatus == ItemStatus.ON_SALE\n                && idMarketItem[i].seller == msg.sender\n            ) {\n                uint currentId = idMarketItem[i].itemId;\n                MarketItem storage currentItem = idMarketItem[currentId];\n                items[currentIndex] = currentItem;\n                currentIndex += 1;\n            }\n        }\n        return items;\n    }\n}\n",
  "sourcePath": "/Users/rokrokss/workspace/hyein/BEB-05-LeeSea/contract/contracts/LeaSeaMarket.sol",
  "compiler": {
    "name": "solc",
    "version": "0.8.15+commit.e14f2714.Emscripten.clang"
  },
  "schemaVersion": "3.4.8",
  "updatedAt": "2022-08-15T23:02:37.956Z",
  "devdoc": {
    "kind": "dev",
    "methods": {},
    "version": 1
  },
  "userdoc": {
    "kind": "user",
    "methods": {},
    "version": 1
  }
}